:0200000480007A
:10000000372500801303A538373500809303858397
:10001000372500809302C578732240F133810200B6
:1000200063C8630023000300130313006FF05FFF36
:1000300097000000E780806B6F000000130101FF54
:1000400023261100B735008003A605811366060834
:1000500023A8C580B7050010130640072380C500FC
:10006000930620072380D500930610062380D50031
:10007000930700072380F500930610022380D50024
:100080001307A0002380E50073282034634E080482
:10009000130850062380050193088007238015016B
:1000A0009308300623801501238005012380F50085
:1000B0002380C500130690062380C5001306F006B2
:1000C0002380C5001306E0062380C5002380D500E9
:1000D0002380E5000326C5079305460063FAC51093
:1000E000730010006FF0DFFF7325403413750508AF
:1000F0006314051037050010930590062300B50022
:100100009305E0062300B500930540072300B500E2
:10011000130650062300C500130620072300C50060
:100120002300C500130650072300C500130600076F
:100130002300C5002300B500930510022300B5007D
:100140002300B5002300B5009305A0002300B500EF
:1001500073254034B7F5FFFF9385F57F3375B50000
:10016000731045343705002083450500373600807D
:100170000346968193F63500137736006398E60AB6
:1001800093F6450093B616001317D6011357F701DF
:10019000638EE60893F6850093B616001317C60122
:1001A0001357F7016384E60893F6050193B616002A
:1001B0001317B6011357F701B3C6E600B345B600EF
:1001C0009395A50193D5A54193A5050093C5F5FF8A
:1001D000B3F5D500638C0504B735008003A6C5814F
:1001E0001306160063120616730010006FF0DFFF8F
:1001F000232EB5066F00401337C500300326C5FF18
:10020000832585FF37C50000130505353385A50017
:10021000B336B500B305D60033B6C50033F6C60015
:1002200063040604730010006FF0DFFF0345050050
:100230001375050263180504370500208345050082
:1002400093F5050163940508034505001375450002
:100250006318050A3705002003450500137585005E
:10026000631E050A6F00400C374600302320A600AD
:100270002322B600732540341375F5F77310453407
:100280006F00800A373500808325458393851500EC
:100290003786EB511306F65133B6C5021356560096
:1002A000930640063306D602B385C540232AB5829D
:1002B000370500109305E0032300B5003705002043
:1002C0008345050093F50501E38005F8B735008007
:1002D00003A6458363160600130630066F008000F0
:1002E0001306F6FF23AAC582B70500101306C00344
:1002F0002380C5000345050013754500E30C05F494
:10030000370500109305E0052300B50037050020F0
:1003100003450500137585006308050037050010C7
:10032000930560072300B50037050020034505004D
:100330001375F503B7350080A38CA5808320C10019
:100340001301010167800000373500800325058215
:100350009306400623AEC5806370D502B735008092
:1003600003A6C5829306A000B335D602638A0500B2
:10037000730010006FF0DFFF730010006FF0DFFFFD
:10038000B735008083A505833307D602B306B700CF
:1003900063F6E600730010006FF0DFFF3737008070
:1003A00003278782931735003307F7008327470019
:1003B00063F4F60203270700B707001083C707009E
:1003C000B306D700938515002380F600639A0500D5
:1003D000730010006FF0DFFF730010006FF0DFFF9D
:1003E000373700809306A0002328B782E3EED5F2CA
:1003F00093051600B736008023A6B68293079000B7
:10040000232807826362F6029305000023A6068272
:1004100013061500133535063305A0403375C500A6
:10042000373600802320A68297000000E780C000B6
:100430006FF09FEF130101FB232611042324810495
:100440002322910423202105232E3103232C410351
:10045000232A510323286103232671039384050073
:10046000130905003725008083294532032405320E
:100470003735008023280582232231012320810083
:10048000130581009305A00A1306100297200000AF
:10049000E78000CA93050000130581021306A0003F
:1004A0006F00C001B306D7002300D50013594900DF
:1004B000938515001305F5FF630C09009376F90089
:1004C00013070003E3E0C6FE130770056FF09FFDFE
:1004D000130581003305B54013051502372600804A
:1004E000130686329306010097100000E780001B78
:1004F0001315050163060500730010006FF0DFFFA0
:10050000130A0000370901001309F9FF930A2000BC
:1005100037250080130BE537930B1000637C5A05D9
:1005200033064B0113063600B3864B411305810099
:1005300093050400E78009000325C10033752501F8
:10054000E31C05FA03258100330AAA00E3187AFDAB
:10055000130581009305A00A1306100297200000DE
:10056000E78000BD93050000130581021306A0007B
:100570006F004002730010006FF0DFFFB306D7007A
:100580002300D50093D44400938515001305F5FF8F
:10059000638C040093F6F40013070003E3E0C6FE47
:1005A000130770056FF09FFD130581003305B540FB
:1005B00013051502372600801306863293060100C4
:1005C00097100000E780800D13150501E31605F272
:1005D00093040000130A200037250080930AE537B2
:1005E000130B100063F0440733869A00130676005D
:1005F000B3069B401305810093050400E7800900C2
:100600000325C10033752501E31805EE032581009C
:10061000B384A400E39864FD8320C104032481040F
:1006200083244104032901048329C103032A81038C
:10063000832A4103032B0103832BC102130101050C
:1006400067800000730010006FF0DFFF7325003437
:10065000232225088322C50703230508739012343B
:10066000731003308320050003214500832185009A
:100670000322C5008322050103234501832385014D
:100680000324C50183240502832585020326C502B0
:100690008326050303274503832785030328C50312
:1006A000832805040329450483298504032AC504F6
:1006B000832A0505032B4505832B8505032CC505DA
:1006C000832C0506032D4506832D8506032EC506BE
:1006D000832E0507032F4507832F85070325450232
:1006E00073002030731000C0130101FC232E11028F
:1006F000232C8102232A910223282103232631035C
:100700002324410323225103232061031384000087
:10071000370500109305D0032300B5002300B50072
:100720002300B500130600022300C5009306300520
:100730002300D500930640072300D50013071006B9
:100740002300E500130720072300E5002300D50060
:100750002300C500930640042300D5009306F0044F
:100760002300D5001307F0062300E5002300D50081
:100770009306D0042300D5002300C5002300B50054
:100780002300B5002300B5009305A0002300B500A9
:10079000B7250080938585141306E01083C60500F5
:1007A0002300D5001306F6FF93851500E31806FE17
:1007B000370500109305A0002300B5002324010095
:1007C00037360080130686832326C10037969800AB
:1007D000130606682328C100130600072300C5007E
:1007E000930620072300D500930690062300D5002A
:1007F0001307E0062300E500930740072300F500F8
:1008000013080002230005012300C5001306F006AB
:100810002300C5002300D5002300E5002300F500D8
:1008200023000501130600032300C5002300B500C3
:1008300063120004130581009305003213062000A3
:100840009306040097100000E78040DA6304050275
:10085000930405009305A00A1306003297200000B8
:10086000E780008D13F53400630A05007300100063
:100870006FF0DFFF730010006FF0DFFF130900005F
:1008800093090000373A008023249A82370500102C
:10089000930500072300B500130620072300C500B9
:1008A000130690062300C5009306E0062300D5003A
:1008B000130740072300E500930700022300F5001B
:1008C0002300B5009305F0062300B5002300C50002
:1008D0002300D5002300E5002300F5009305000365
:1008E0002300B5009305A0002300B500930A40063D
:1008F00063F05911631A000E032B8A8213058100DD
:1009000093054006130600009306040097100000AC
:10091000E780C0CD630A050C930405009305A00A87
:100920001306400697200000E7808080330B2B01E0
:1009300023209B0023225B0193891900130989005E
:10094000E39859FB37050010930500072300B50015
:10095000130620072300C500130690062300C500D8
:100960009306E0062300D500130740072300E500A7
:10097000930700022300F5002300B5009305F0065D
:100980002300B5002300C5002300D5002300E500A7
:100990002300F500930500032300B5009305A00094
:1009A0002300B500631A000413058100B715000089
:1009B000130630009306040097100000E78000C380
:1009C000630C0502130405009305A00A3716000006
:1009D00097100000E780C07513757400630205026C
:1009E000730010006FF0DFFF730010006FF0DFFF87
:1009F000730010006FF0DFFF730010006FF0DFFF77
:100A00001305F47F1305957FB7250080938505793D
:100A100023A2A50037150080130585AB23AEA506DC
:100A20001305000823A0A508732540301306100104
:100A3000131676003365C500731045307390053486
:100A4000371500801305454D7310553037050010DC
:100A5000930500072300B500130620072300C500F7
:100A6000130690062300C5009306E0062300D50078
:100A7000130740072300E500930700022300F50059
:100A80002300B5009305F0062300B5002300C50040
:100A90002300D5002300E5002300F50093050003A3
:100AA0002300B5009305A0002300B5006FF01FBA26
:100AB00097100000E78000AD130101F52326110A0D
:100AC0002324810A2322910A2320210B232E31097A
:100AD000232C4109232A510923286109232671095E
:100AE00023248109232291092320A109232EB10760
:100AF000B739008003A54983130B4006E3786515D9
:100B0000B735008083A5858213153500B385A50010
:100B100003A5050003A645009305000097100000FB
:100B2000E7800061930A00003706001013050003F8
:100B30002300A600930500022300B6002300A600B0
:100B4000930BA00023007601373500800325C58173
:100B5000B725008083AC453203A4053237360080C8
:100B6000B736008037370080B725008093858532FF
:100B7000232EB102B70D0100938DFDFFB725008034
:100B8000138DE537B7250080138C4535B785EB51BC
:100B90009385F5512328B102B725008093857525EB
:100BA000232AB102B7658F02938595C22326B1022D
:100BB000B715B7D1938595752324B102B7450F00BA
:100BC000938505242322B102B7E51B43938535E8BD
:100BD0002320B102B7E5F50593850510232EB1005A
:100BE000B71500009385B547232CB100B745E655EE
:100BF000938595B8232AB100B72500809385753673
:100C0000232CB102130A200093041000B707004000
:100C10001309F0009305050013080500631AA516D3
:100C2000032B068283A9C68223280782232A9105E3
:100C300023288104130581059305A00A13061002D9
:100C400097100000E780C04E930500001305810750
:100C50006F00C0013386C6002300C500135B4B0044
:100C6000938515001305F5FF630C0B001376FB004D
:100C700093060003E36076FF930670056FF09FFD17
:100C8000130591073305B540930601050326C103FB
:100C900097100000E78080A013150501631C057AFA
:100CA000130B000063704B7D33066D011306360095
:100CB000B38664411305810593050400E7800C00A9
:100CC0000325C1053375B501631605780325810534
:100CD000330BAB00E3189BFC130581059305A00AB9
:100CE0001306100297100000E7808044930500006F
:100CF000130581076F00C0013386C6002300C500BD
:100D000093D94900938515001305F5FF638C0900FD
:100D100013F6F90093060003E36076FF930670056F
:100D20006FF09FFD130591073305B540930601054C
:100D30000326C10397100000E780409613150501B4
:100D4000631A05709309000063FA497333063D0185
:100D500013067600B386344113058105930504001C
:100D6000E7800C000325C1053375B5016314056EDA
:100D700003258105B389A900E39899FC37350080E4
:100D80000328C581B7390080130B4006B707004020
:100D900003A54983637C656FB735008083A5858291
:100DA000131535003385A50003264500832505006E
:100DB0003385C500B306F600138717003335E50009
:100DC000B3B6D50093C6160033E5A6006304056CE0
:100DD000232801013705004097100000E780C0314B
:100DE000938A1A00638C0A6A73000000373500800A
:100DF00083294583130B00002320810423229105BE
:100E0000130500016374AB6633066C01B3066941D8
:100E10001305810593050400E7800C000325C10537
:100E20003375B501631C0562032581053305AB00ED
:100E300063626565130B0500E31425FD1305810549
:100E40009305A00A13061002130B1002971000005E
:100E5000E780002E9306400663E6D91003250103C0
:100E600033B5A90213555500B305D502B385B94072
:100E70009395150083274103B385B70003C615007A
:100E800083C50500230CC106A30BB10693D5490009
:100E9000130BF00113078105130600276374B60EC8
:100EA0000326C102B335C502B385D5023305B5406B
:100EB000131515003385A70083451500034505006C
:100EC000230BB106A30AA1060325810233B5A902AB
:100ED0001355D500130BD0018325410263E4B90AF1
:100EE000B335C502B385D5023305B54013151500DA
:100EF0003385A7008345150003450500230AB10685
:100F0000A309A1060325010233B5A9021355250142
:100F1000130BB0018325C10163E6B9068325810166
:100F2000B305B50293D53501B385D5023305B54078
:100F300013151501135505013385A70083451500C9
:100F4000034505002309B106A308A10603254101B5
:100F500033B5A90293599501130B900163EA790106
:100F60006F00C002130781058327410363F07903F3
:100F70001305FBFFB305A700138609032380C500F3
:100F80006F00C00293090500E36475FF939919008F
:100F9000B389370183C5190003C609001305EBFFA8
:100FA000B306A700A380B6002380C60093051002F5
:100FB000B385A5403305A700930601040326C103AA
:100FC00097000000E780806D131505016318054840
:100FD0009309000063F8494B33063C0113061601E0
:100FE000B38634411305810593050400E7800C00A6
:100FF0000325C1053375B501631205460325810537
:10100000B389A900E39899FC130B0000F32900B001
:10101000732520B02326A1002326910523248104D3
:10102000130580006374AB48032681033306660111
:1010300013057000B306654113058105930504008F
:10104000E7800C000325C1053375B501631C054419
:10105000032581053305AB00636E6545130B050061
:1010600093057000E31EB5FA130581059305A00AE8
:1010700013061002130B100297100000E780400BBC
:101080009306400663E4D9100325010333B5A90292
:1010900013555500B305D502B385B9409395150096
:1010A00083274103B385B70003C6150083C5050038
:1010B000230CC106A30BB10693D54900130BF00115
:1010C00013078105130600276378B60C0326C102B7
:1010D000B335C502B385D5023305B54013151500E8
:1010E0003385A7008345150003450500230BB10692
:1010F000A30AA1060325810233B5A9021355D50021
:10110000130BD0018325410263E8B908B335C5024A
:10111000B385D5023305B540131515003385A700F7
:101120008345150003450500230AB106A309A1065E
:101130000325010233B5A90213552501130BB00194
:101140008325C10163EAB90483258101B305B50292
:1011500093D53501B385D5023305B5401315150177
:10116000135505013385A700834515000345050088
:101170002309B106A308A1060325410133B5A9023D
:1011800093599501130B90016F00400113078105DE
:10119000832741036F0080009309050063FC7901F8
:1011A0001305FBFFB305A700138609032380C500C1
:1011B0006F00400293991900B389370183C5190064
:1011C00003C609001305EBFFB306A700A380B60012
:1011D0002380C60093051002B385A5403305A70000
:1011E000930681040326C10397000000E780004BAB
:1011F000131505016318052A930900001305B000B3
:1012000063FEA92A032681033306360113069600DE
:10121000B3863B411305810593050400E7800C006C
:101220000325C1053375B501631E05260325810518
:101230003385A9006368352993090500E31075FD1E
:10124000130581059305A00A1306100293091002E5
:1012500097100000E780C0ED930640068328C10088
:1012600063E4D8100325010333B5A80213555500D4
:10127000B305D502B385B840939515008327410384
:10128000B385B70003C6150083C50500230CC1064E
:10129000A30BB10693D548009309F001130781050C
:1012A0000326C102130800276376B80CB335C502C4
:1012B000B385D5023305B540131515003385A70056
:1012C0008345150003450500230BB106A30AA106BB
:1012D0000325810233B5A8021355D5009309D00127
:1012E0008325410263E8B808B335C502B385D5024A
:1012F0003305B540131515003385A7008345150048
:1013000003450500230AB106A309A106032501022E
:1013100033B5A802135525019309B0018325C101F6
:1013200063EAB80483258101B305B50293D535017D
:10133000B385D5023305B5401315150113550501C5
:101340003385A70083451500034505002309B10631
:10135000A308A1060325410133B5A80293589501BE
:10136000930990016F004001130781058327410312
:101370006F0080009308050063FC78011385F9FF76
:10138000B305A700138608032380C5006F00400241
:10139000139518003385A700834515000346050003
:1013A0001385E9FFB306A700A380B6002380C6001B
:1013B00093051002B385A5403305A7009306810469
:1013C0000326C10397000000E780402D1315050197
:1013D000631A050C9309000063FA490F0326810381
:1013E0003306360113065601B386344113058105D1
:1013F00093050400E7800C000325C1053375B50192
:101400006312050A03258105B389A900E39699FCB7
:1014100037360080B736008037370080B707004086
:101420008325010163967A0137050010230005002A
:10143000373500800325C581B7390080130B40067E
:1014400013080500638EA5FC6FF09F9473001000D5
:101450006FF0DFFF730010006FF0DFFF730010000C
:101460006FF0DFFF730010006FF0DFFF73001000FC
:101470006FF0DFFF730010006FF0DFFF73001000EC
:101480006FF0DFFF730010006FF0DFFF73001000DC
:101490006FF0DFFF730010006FF0DFFF73001000CC
:1014A0006FF0DFFF730010006FF0DFFF73001000BC
:1014B0006FF0DFFF730010006FF0DFFF73001000AC
:1014C0006FF0DFFF730010006FF0DFFF730010009C
:1014D0006FF0DFFF7315053423201500232225004C
:1014E000232435002326450023285500232A6500A0
:1014F000232C7500232E8500232095022324B5027A
:101500002326C5022328D502232AE502232CF5022F
:10151000232E050323201505232225052324350525
:101520002326450523285505232A6505232C750503
:10153000232E8505232095072322A5072324B507FD
:101540002326C5072328D507232AE507232CF507DB
:10155000F322003423225502F3221034232E5506A1
:10156000F322003023205508032145087310053469
:1015700097F0FFFFE780C0AC6FF04F8D731000C095
:1015800037050010930500072300B50093051006EA
:101590002300B5009305E0062300B50093059006EF
:1015A0002300B500930530062300B5009305100213
:1015B0002300B500230005006F00000063800602D1
:1015C00003460600B70600102380C600130610006D
:1015D0002320C5002322050067800000232005008A
:1015E000232205006780000093763500638606009D
:1015F000730010006FF0DFFF9377F60F9306000281
:1016000063F8D70483264500032705006386070493
:10161000130101FF93071000B397C7003386E6005C
:101620003388C7001308F8FFB338C8002306110138
:10163000130101016368C804B307F040B377F800F1
:101640003386C74063FCC700730010006FF0DFFFF4
:10165000730010006FF0DFFF130600003306C700B1
:101660006376E600730010006FF0DFFFB305B6008D
:1016700063F6C500730010006FF0DFFF03278500DD
:101680006376B70013050000678000002320B500D3
:101690003385C60067800000130101FA232E110470
:1016A000232C8104232A9104232821052326310594
:1016B000232441052322510523206105232E710394
:1016C000232C8103232A91032328A1032326B1037A
:1016D0000347C60013890600138405009304050020
:1016E0006300073A032B8600630A043E13050000DB
:1016F000130E0000B7250080938F45349306100029
:1017000013072000930700FC130800089308F00754
:101710001303400093033000930E00FE130FF07F7D
:10172000130A00FFB7250080138C8534B72500808D
:10173000938C0535B7250080138DC534B7250080FF
:10174000938D0534B78580809380050893024E0001
:1017500063E8C22F636E540493054E006366B42E93
:10176000B385C40183C9150083CA050083CB250056
:1017700083C5350093998900B3E95901939B0B0107
:1017800093958501B3E57501B3E53501B3F5150012
:10179000639005029305450063ECA52A138E0200B1
:1017A0009382420013850500E3F6C2FB6F004029D7
:1017B000637E8E24B389C4018382090093850F0060
:1017C00063D6020293FA02FE93050C006380FA02CC
:1017D00093FA02FF93850C00638ADA0193FA82FF81
:1017E00093850D0063844A0193050D0083DA05009B
:1017F00063980A5C83C5250093F57500330EBE001F
:101800006360C45D6380D5206342B706638ED510E4
:101810006398E52493F502FE6398F52493F5F201AD
:10182000230D0100231CB10083C5190093F2050CA0
:101830006396020F83528101939962009392120181
:1018400093D2B201230D510093F5F503B3E9B9002A
:101850009395090193D5050193920201B3E55500D3
:10186000231C310163EEB8166F00800A6388750C83
:101870006398651E93F582FF639C451F93F5720084
:10188000230D0100231CB10083C5190093F2050C40
:101890006396020983528101939A62009392120126
:1018A00093D2B201230D510093F5F503B3E5BA00CD
:1018B000231CB10083C5290093F2050C6390020735
:1018C00083528101939A62009392120193D2B201E2
:1018D000230D510093F5F503B3E5BA00231CB100C5
:1018E00083C5390093F2050C639A02038352810188
:1018F000939962009392120193D2B201230D510089
:1019000093F5F503B3E5B900231CB100639402100D
:10191000930550002322B1026F0080002322610250
:10192000232001026F00400D93F5F20F23120102F4
:10193000230101022310B1026F00000C93F502FF96
:10194000639CD51393F5F200230D0100231CB10015
:1019500083C5190093FA050C9302400063940A07AB
:10196000835A8101939B6A00939A1A0193DABA0110
:10197000230D510193F5F503B3E5BB00231CB10022
:1019800083C5290093F9050C639E090383528101E5
:10199000939962009392120193D2B201230D5100E8
:1019A00093F5F503B3E5B900231CB1009395050148
:1019B00093D5050193920201B3E5550093025000BF
:1019C0006366BF00231251026F00000393D2B5007B
:1019D0009309B00163963201930560006FF09FF3A5
:1019E000231EB10093D20501230F51002310B10231
:1019F00023015102231201029302010283D5420006
:101A00006390053C1305150063080504E3608ED45C
:101A10006F00403B9395050193D505019392020118
:101A2000B3E5550093D205019309100163E6320135
:101A3000930570006FF01FEE231EB1006FF0DFFA08
:101A4000730010006FF0DFFF730010006FF0DFFF16
:101A5000730010006FF0DFFF730010006FF0DFFF06
:101A6000730010006FF0DFFF730010006FF0DFFFF6
:101A7000730010006FF0DFFF730010006FF0DFFFE6
:101A80006304044E8329490003290900130A000056
:101A9000636E440333864401B306444113050102D7
:101AA00093050900E780090003254102931505010C
:101AB000639E054A032501023305AA00636C4501B4
:101AC000130A0500E31685FC6F00004A730010003E
:101AD0006FF0DFFF730010006FF0DFFF63060B484D
:101AE00037B5AAAA1305A5AA2326A1000325060136
:101AF0009315B50093D6B5001307F0076368D700B8
:101B000037270080032747346F0040041307F07F16
:101B10006368D70037270080032787346F000003EE
:101B200013D7B5016318070037270080032707354F
:101B30006F00C001930710016366F7001307B00040
:101B40006F00C00037270080032707349317070171
:101B50006384071013D50701930565FF93062000E2
:101B600063FAD51437250080130A753893093000BD
:101B70000345460113753500630E053093051000CB
:101B80006304B514930520006314B50A638A09043D
:101B9000832A0900832B4900130C0000930C0000DA
:101BA00063EC990933069A01B38699411305010242
:101BB00093850A00E7800B00032541029315050178
:101BC0006396053A032501023385AC00636A9507E5
:101BD000930C0500E31635FD130C1C00E3106CFD9F
:101BE000630404388329490003290900130A00000B
:101BF000636C440533864401B30644411305010276
:101C000093050900E78009000325410293150501AA
:101C1000639E053483250102B305BA0063EA4503D8
:101C200013050000138A0500E39485FC6F0000345F
:101C3000730010006FF0DFFF730010006FF0DFFF24
:101C4000730010006FF0DFFF730010006FF0DFFF14
:101C5000730010006FF0DFFF1357070193797700CF
:101C60001307500063F0E9041307200063463707A9
:101C700013071000638CE91A930620006394D90AB5
:101C800093D59501639405029355650093E5050C82
:101C90002306B1001375F50313050508A306A1007B
:101CA0006F00C01D730010006FF0DFFF73001000A5
:101CB0006FF0DFFF63160500930900006F00801CC2
:101CC000730010006FF0DFFF930B1B0063900B0697
:101CD000730010006FF0DFFF930630006384D916A5
:101CE000930640006390D90493D5D5019385050FE1
:101CF0002306B1009315E50093D5A501938505084A
:101D0000A306B1009315450193D5A5019385050858
:101D10002307B1001375F50313050508A307A100F8
:101D20006F00C015730010006FF0DFFF032C490037
:101D3000832A090013352B0093B519003365B500CC
:101D40006304052663040404130B00006362640744
:101D500033866401B30664411305010293850A00CA
:101D6000E7000C000325410293150501639005204F
:101D7000032501023305AB0063606505130B050005
:101D8000E31685FC032C4900832A090093D61B0027
:101D900023285101232A81011305010193050A001B
:101DA0001386090097000000E78000276F00001CE1
:101DB000730010006FF0DFFF730010006FF0DFFFA3
:101DC0001305040063766501330BAB406FF05FD100
:101DD0008329090003294900130A000063604405B0
:101DE00033864401B306444113050102938509007B
:101DF000E7000900032541029315050163980516C4
:101E000083250102B305BA0063EE45011305000006
:101E1000138A0500E39485FC6F00401573001000E1
:101E20006FF0DFFF730010006FF0DFFF930500100D
:101E300063F6B6002306A1006F0040047300100093
:101E40006FF0DFFF93D665011307B001E38CE6D096
:101E500063C805109355C50093E5050E2306B10030
:101E60009315450193D5A50193850508A306B100F7
:101E70001375F503130505082307A100130550008A
:101E800063FCA90A130AC100034546011375350016
:101E9000E31605CE63040404832B4900832A09005A
:101EA000130C0000636E840933868401B3068441F9
:101EB0001305010293850A00E7800B000325410208
:101EC000931505016394050A032501023305AC004F
:101ED000636C8507130C0500E31685FC638609080F
:101EE000032409008324490013090000930A000019
:101EF00063E0590733065A01B386594113050102BD
:101F000093050400E78004000325410293150501B1
:101F1000639E0504032501023385AA00636E550301
:101F2000930A0500E31635FD130919001305000097
:101F3000E31E69FB6F008003730010006FF0DFFF8A
:101F4000730010006FF0DFFF730010006FF0DFFF11
:101F5000730010006FF0DFFF730010006FF0DFFF01
:101F6000730010006FF0DFFF130500008320C10530
:101F70000324810583244105032901058329C10424
:101F8000032A8104832A4104032B0104832BC10308
:101F9000032C8103832C4103032D0103832DC102F4
:101FA0001301010667800000930C0000135B1B0007
:101FB000130D000063E8A9053306AA01B386A94101
:101FC0001305010293850A00E7000C000325410276
:101FD00093150501E39C05F8032501023305AD00C7
:101FE0006366A503130D0500E31635FD938C1C00F5
:101FF000E3906CFD032C4900832A0900E31604D406
:102000006FF0DFD8730010006FF0DFFF7300100077
:102010006FF0DFFF130101FD23261102232481024B
:102020002322910223202103232E3101232C41015D
:10203000232A5101232861012326710113840600FC
:102040009304060013B6160093B614003366D60048
:10205000630A0602130500008320C10203248102E3
:1020600083244102032901028329C101032A81013A
:10207000832A4101032B0101832BC10013010103BA
:10208000678000001389050093090500930A00008A
:1020900003AA090003AB4900930B000063E4740535
:1020A00033067901B38674411305010093050A00D4
:1020B000E7000B000325410093150501E39E05F899
:1020C000032501003385AB0063627503930B0500A4
:1020D000E31695FC938A1A0013050000E39A8AFA26
:1020E0006FF09FF7730010006FF0DFFF73001000B8
:1020F0006FF0DFFF630A060283C605001306F6FFD2
:102100002300D5006302060293061500938515008F
:1021100003C705002380E6001306F6FF938616002A
:1021200093851500E31606FE67800000630C060029
:10213000930605002380B6001306F6FF938616006B
:08214000E31A06FE67800000AF
:10214800446F6F6F6D204F7574204F66204F726417
:102158006572204D616368696E653A0A2020444FB4
:102168006F4F4D20697320616E206F7574206F6604
:10217800206F7264657220526973635620776974A0
:10218800682074686520676F616C206F660A20207C
:1021980072756E696E6720444F4F4D206F6E2069CF
:1021A80074210A0A2020497420737570706F727444
:1021B80020746865207276333269206973612077EC
:1021C800697468206D616368696E65206D6F646508
:1021D8002C0A202069732066696E652D74756E65FA
:1021E8006420746F2072756E206F6E20746865208D
:1021F800554C58335320626F6172642061740A2011
:102208002032356B487A2C20757365206120386B35
:102218004220322D7761797320636163686520619C
:102228006E642068617320616E0A2020696E74658F
:10223800726661636520666F7220554152542C2086
:10224800534452414D20616E642048444D4900304A
:10225800303031303230333034303530363037305A
:10226800383039313031313132313331343135313F
:102278003631373138313932303231323232333225
:10228800343235323632373238323933303331330B
:1022980032333333343335333633373338333934F1
:1022A80030343134323433343434353436343734EA
:1022B80038343935303531353235333534353535CF
:1022C80036353735383539363036313632363336B5
:1022D800343635363636373638363937303731379B
:1022E8003237333734373537363737373837393881
:1022F800303831383238333834383538363837387A
:10230800383839393039313932393339343935395E
:102318003639373938393900AAAAAAAABC15008033
:1023280000000000000000000000000000000000A5
:10233800200000000200000000000400000001006E
:0C2348000000020008000000000003007C
:10235400646973706C617920736C6964653A207B7D
:102364007D0A006379636C653A207B7D20696E7316
:10237400747265743A207B7D0A007B787D207B78BB
:062384007D0A00EFBFBD61
:040000058000000077
:00000001FF
