:0200000480007A
:10000000976200009382424D171301001303C3014E
:1000100063F862002380020093821200E3EC62FE28
:1000200017110100130101FE17650000130505FA01
:1000300097000000E780805697100000E780C0130B
:100040006F000000130181FF232011001305100031
:10005000B7020050A380A20013050002B7020050AF
:100060002381A200B7420F0093820224638602001C
:100070009382F2FF6FF09FFF9302000A63800202F7
:100080009382F2FF1305F00F232251009700000026
:10009000E7808002832241006FF05FFE13050000BD
:1000A000B7020050A380A200832001001301810049
:1000B00067800000B70200502380A200B702005002
:1000C0000F00F00F0385020067800000B7020050A8
:1000D000A380A20067800000B70200502381A20025
:1000E00067800000130101FF2320110023228100FB
:1000F0001304A00017650000130575F697000000B3
:10010000E780C049B745FFFF13055009970000007D
:10011000E780801997000000E780C0231304F4FFF4
:10012000630604001375E50FE31605FC8320010048
:10013000032441001301010167800000130101FF46
:10014000232011002322810017650000130535F2DA
:1001500097000000E7808044930590FE9395B500DA
:1001600037B50100130575A897000000E780C0139C
:1001700097000000E780001E1305F00F97000000B5
:10018000E78080F397000000E780C0341305F00F8C
:1001900097000000E78040F297000000E78080337E
:1001A0001305F00F97000000E78000F197000000B2
:1001B000E78040321305F00F97000000E780C0EFA2
:1001C00097000000E780003197000000E780003CC6
:1001D0008320010003244100130101016780000016
:1001E000130101FF23201100232281001765000065
:1001F000130505EA97000000E780403AB775FFFF56
:10020000938505701305000097000000E780C00982
:1002100097000000E78000148320010003244100C0
:100220001301010167800000130101FF2320110069
:100230002322810017650000130575E49700000074
:10024000E780C035B775FFFF93850594130500005F
:1002500097000000E780400597000000E780800FCE
:100260008320010003244100130101016780000085
:10027000130101FF232011002322810097000000B9
:10028000E78040F697000000E78040FA13751500FC
:10029000E31605FE83200100032441001301010140
:1002A00067800000130101FF232011002322810039
:1002B00023249100130405009384050013D58401C1
:1002C000B70200502380A20013D50401B7020050EA
:1002D0002380A20013D58400B70200502380A2001F
:1002E00013D50400B70200502380A20013558401E7
:1002F000B70200502380A20013550401B70200503A
:100300002380A20013558400B70200502380A2006E
:1003100013550400B70200502380A2001304A0006C
:100320001305F00F97000000E78000D91304F4FFD5
:10033000630604009302F00FE30455FE83200100DE
:100340000324410083248100130101016780000020
:100350006300050E130101FF2320110023228100F9
:100360002324A1001304050017650000130535C7F9
:1003700097000000E780802293721400638A0200D5
:1003800017650000130575C697000000E78000217F
:1003900093722400638A020017650000130575C577
:1003A00097000000E780801F93724400638A020078
:1003B000176500001305E5C497000000E780001EE4
:1003C00093728400638A0200176500001305A5C4B8
:1003D00097000000E780801C93720401638A02008A
:1003E000176500001305F5C397000000E780001BA8
:1003F00093720402638A0200176500001305F5C3B7
:1004000097000000E780801993720404638A020059
:1004100017650000130585C397000000E7800018EA
:100420008320010003244100032581001301010101
:1004300067800000130181FD1303A00093030000F7
:1004400093030000930E8002638ED301B3726502A2
:1004500033556502338E230023205E0093834300CF
:100460006FF09FFE93034002930EC0FF6380D3039F
:10047000338E230083220E0093E202033703001021
:10048000230053009383C3FF6FF05FFE13018102CB
:10049000678000001301C1FF23201100634805009D
:1004A00097000000E78040F96F00C001B70200101C
:1004B0001303D002238062003305A04097000000A0
:1004C000E78080F78320010013014100678000006E
:1004D0009372F5001373050F13534300370E00108A
:1004E0009303A000634873001303730323006E009B
:1004F0006F00C0001303030323006E0063C8720083
:100500009382720323005E006F00C0009382020397
:1005100023005E0067800000130101FF232011000B
:100520002322810013040500135585009700000065
:10053000E78040FA1305040097000000E78080F987
:1005400083200100032441001301010167800000A2
:10055000130101FF23201100232281001304050051
:100560001355050197000000E78040FB13050400C8
:1005700097000000E78080FA8320010003244100F7
:100580001301010167800000B70200101303A000EF
:100590002380620067800000B7020010030305009B
:1005A0006308030023806200130515006FF01FFF2E
:1005B0006780000000000000000000000000000054
:1005C000130141FC23203100232241002324110088
:1005D0002326810023289100232A2101232C310185
:1005E000232E41012320510323226103232471037D
:1005F0002326810323289103232AA103232CB1035B
:1006000073100534232025088322C5077390123404
:100610008320050003214500832185000322C500B6
:100620008322050103234501832385010324C5019A
:1006300083240502832585020326C502832605033C
:1006400003274503832785030328C503832805045F
:100650000329450483298504032AC504832A050543
:10066000032B4505832B8505032CC505832C050627
:10067000032D4506832D8506032EC506832E05070B
:10068000032F4507832F850703254502730020307C
:10069000731505342320150023222500232435005B
:1006A0002326450023285500232A6500232C7500A6
:1006B000232E8500232095022324B5022326C5027C
:1006C0002328D502232AE502232CF502232E050335
:1006D000232015052322250523243505232645053A
:1006E00023285505232A6505232C7505232E85050A
:1006F000232095072322A5072324B5072326C50712
:100700002328D507232AE507232CF507F3220034F5
:100710002322550203210508F3221034232E550607
:100720008321010003224100832081000324C100B2
:10073000832401010329410183298101032AC10185
:10074000832A0102032B4102832B8102032CC10265
:10075000832C0103032D4103832D81031301C10366
:1007600067800000130101FA232E1104232C810459
:10077000232A91042328210523263105232441051A
:100780002322510523206105232E7103232C81038D
:10079000232A91032328A1032326B103938406006F
:1007A00013090600938A05001304050083A545007C
:1007B00003A50A0013D6E601B336C0002300D10218
:1007C0006318062E938B000093090700139B2400E7
:1007D00063060B0403A705001306200093050B0016
:1007E00093860B00E70007006304052C130A05003D
:1007F0009305A00A13060B0097500000E7800069DC
:1008000013753A00630E05003765008013057514F3
:100810009305300197000000E780003F130AC0FFF6
:10082000232231012324210103ABCA003765008054
:100830000329C5EB032C85EB732500B02326A1000B
:10084000232A210123288101130501019305C100F9
:1008500097400000E780406C131505016316050AF8
:1008600093090000370D0100130DFDFF232C8101BA
:10087000232E2101930CE00037650080930D152392
:1008800063EA3C3333863D01B3863C4113050102E4
:1008900093050C00E7000900032541023375A5010B
:1008A00063140506032501023385A900636E353103
:1008B00093090500E31695FD37650080930505EC67
:1008C0001306810113050B0097500000E7800037E5
:1008D00013150501631A0502B7650080938C854CDA
:1008E000631E0502130501029306100093050C0018
:1008F00013860C00E700090083254102032501024D
:10090000B3F5A501E38E05FC37650080130555118D
:100910009305200197000000E780002F9305100049
:10092000631AB528938DF4FF63E0B42B63F89D2A16
:1009300003A5CA00930515006388052803A90A01C9
:100940006376B908130C090013551C0033058501A3
:1009500013058500333685013306C040336CA6008D
:10096000E364BCFE83A98A006306090E9305C008F0
:100970003335B902631A052403A50A0003A64A0009
:10098000330DBC02B336BC02B33CD000230091034C
:1009900063940602032846003306B902930620003A
:1009A0009385090013070D0093870B00E7000800EB
:1009B000137515006310051E83A54A0003A50A00E0
:1009C0002300910363880C0A6F00800E130C09004A
:1009D0006378251D939D2D009305150023A6BA006D
:1009E00083A58A00B30DBA011306C0083305C502FA
:1009F0003389A500232009002322B90123240900FB
:100A00002326090023280900232A0900232C090092
:100A1000232E090023200902232269030325410014
:100A20002324A9021305C90213060005930500003B
:100A300097500000E7808045130500008325810062
:100A4000232EB9062322490923249908232064016F
:100A50006F0040061305C008330DAC023335AC02FD
:100A6000B33CA00083A54A0003A50A00230091031C
:100A700063900C0463000D0803A705001306200013
:100A800093050D0093860B00E70007006302050243
:100A9000930C05009305A00A13060D009750000063
:100AA000E780C03E13F53C00630805046FF0DFD516
:100AB000130510002312A4008320C105032481051F
:100AC00083244105032901058329C104032A8104E4
:100AD000832A4104032B0104832BC103032C8103CC
:100AE000832C4103032D0103832DC1021301010651
:100AF00067800000930CC0FF03A5CA006360AC0EC2
:100B000083A58A001306C0083306C5023385C500D5
:100B1000B386CC0033B5AC00B3B6D5003375D50081
:100B20006318050C133D190013850C009750000045
:100B3000E78040321305C0083305A9026316090097
:100B4000B7B5AAAA9389A5AA130DFDFF337DAD0001
:100B500063000D0403A94A0003A50A002320A10095
:100B60009305A00A1385090013060D009750000095
:100B7000E780C03183278900930620000325010008
:100B80009385090013060D0013870B00E78007000B
:100B900023A49A0103A5CA0023A88A01E36C85E374
:100BA000376500801305F537930580019700000035
:100BB000E7808005376500801305B5159305400271
:100BC00097000000E7804004376500801305050B9F
:100BD0009305000197000000E7800003376500805F
:100BE0001305150C9305300197000000E780C00144
:100BF0003765008013057545930570019700000067
:100C0000E7808000130101FB2326110423248104C3
:100C10002322910423202105232E3103232C410379
:100C2000232A5103232861032326710323248103EC
:100C3000232291039384050013090500130B000080
:100C4000B70A010037650080032AC5EB032485EB52
:100C5000938AFAFFF32900B023264101232481005F
:100C6000930B100137650080130C554263E46B1D34
:100C700033066C01B3866B411305810193050400B3
:100C8000E7000A000325C1013375550163100518FB
:100C9000032581013305AB006368651B130B050059
:100CA000E31675FD37650080930505EC130681009A
:100CB0001385090097500000E78040F813150501DF
:100CC00063160514930C000083298100032BC100D7
:100CD000930B200037650080130C554263EC9B1585
:100CE00033069C0113063601B3869B41130581012F
:100CF00093850900E7000B000325C10133755501F9
:100D000063160510032581013385AC00636E9513CE
:100D1000930C0500E31475FD930B0000232881005C
:100D2000232A41019309500137650080130BB54315
:100D300063E2791133067B01B386794113058101A2
:100D400093050400E7000A000325C101337555012E
:100D5000631E050A032581013385AB006366750FA9
:100D6000930B0500E31635FD37650080130605EC8F
:100D700093060101130509009385040097400000C4
:100D8000E78040561315050163120508930900001A
:100D900093043000376500801309B54363EC3409D0
:100DA0003306390113068601B386344113058101E8
:100DB00093050400E7000A000325C10133755501BE
:100DC00063160504032581013385A900636E350789
:100DD00093090500E31495FC13050000B765008036
:100DE0009384854C631E0502130581019306100050
:100DF0009305040013860400E7000A008325C1015F
:100E000003258101B3F55501E38E05FC37650080AC
:100E1000130555119305200197000000E780C0DEFF
:100E2000930510006318B500370500102300050076
:100E30006F000000376500801305B515930540026B
:100E400097000000E78040DC376500801305050B44
:100E50009305000197000000E78000DB130101FC0F
:100E6000232E1102232C8102232A910223282103FD
:100E7000232631032324410323225103232061032A
:100E8000F32520341304050063CE0518032544011F
:100E90008325C4006378B528832584001306C00821
:100EA0003305C5023385A5000326C5079305460013
:100EB00063E0C5261305C5072320B500376500800C
:100EC0008329C5EB832485EB732500B02326A1007D
:100ED000232A310123289100130501019305C10044
:100EE00097400000E78040031315050163140508CF
:100EF000130B0000370A0100130AFAFF13097000F0
:100F000037650080930A054C636A691F33866A015E
:100F1000B30669411305810193850400E780090048
:100F20000325C101337545016316050403258101BD
:100F30003305AB00636E651D130B0500E31625FD3D
:100F400013050000B76500801389854C631E0502F8
:100F50001305810193061000938504001306090010
:100F6000E78009008325C10103258101B3F545010F
:100F7000E38E05FC376500801305551193052001AC
:100F800097000000E78040C8930510006318B5166D
:100F9000832444010325C40063F6A41803258400B8
:100FA0009305C008B385B402B305B50083A58502D7
:100FB0006384051813F63500631A061803C6C500C6
:100FC000137616006312060803A6850003A74500E2
:100FD00083A60500130541009305040097F0FFFF69
:100FE000E780807803558100631C05160325C40043
:100FF00063FAA412032584009305C008B385B402E4
:101000003305B50003254502630805128325410019
:1010100037660080034686EA2300C500232AB40011
:101020006F00400B732540341375050863160504E3
:1010300073254034B7F5FFFF9385F57F3375B50011
:10104000731045346F0000099305C008B385B402DE
:101050003305B500032545026300050EB765008022
:1010600083C595EA2300B500032544011305150047
:10107000631605046F00C00937C500300326C5FF9D
:10108000832585FF37150300130505D43385A50097
:10109000B336B500B305D60033B6C50033F6C60087
:1010A00063180606374600302320A6002322B60028
:1010B0000325440113051500630C05048325C400B2
:1010C000B345B50093B515009385F5FF33F5A5003D
:1010D000232AA4008320C103032481038324410322
:1010E000032901038329C102032A8102832A4102C1
:1010F000032B0102130101046780000037650080A3
:101100001305B5159305400297000000E780C0AFB6
:10111000376500801305050B93050001970000005B
:10112000E78080AE376500801305150C930530010C
:1011300097000000E78040AD3765008013058512F9
:101140009305E00197000000E78000AC3765008060
:10115000130575149305300197000000E780C0AABD
:10116000376500801305D50E9305700197000000C8
:10117000E78080A9130101F8232E1106232C810694
:10118000232A9106232821072326310723244107F8
:1011900023225107376500808329C5EB032485EBA3
:1011A000732500B02326A104232A310523288104B6
:1011B000130501059305C10497400000E78000EA8C
:1011C0001315050163120514930A00003709010085
:1011D0001309F9FF9304300137650080130A752560
:1011E00063E6542733065A01B3865441130581053B
:1011F00093050400E78009000325C1053375250127
:1012000063140510032581053385AA006366552301
:10121000930A0500E31695FC13050000B7650080EE
:101220009384854C6316050213058105930610000F
:101230009305040013860400E78009008325C10597
:1012400003258105B3F52501E38E05FC6F00C00B76
:1012500093051000631CB51E376500808329C5EB1C
:10126000032485EB732500B02326A104232A31052E
:1012700023288104130501059305C104974000004C
:10128000E780C0DD1315050163100508930A00000F
:101290009304301137650080130AB52663E8541BA8
:1012A00033065A01B38654411305810593050400A2
:1012B000E78009000325C105337525016316050480
:1012C000032581053385AA0063685517930A050035
:1012D000E31695FC13050000B76500809384854CE8
:1012E000631E050213058105930610009305040093
:1012F00013860400E78009008325C10503258105C5
:10130000B3F52501E38E05FC376500801305551103
:101310009305200197000000E780008F93051000DF
:101320006316B5122322010037150180130545020B
:101330002324A100B705C0012326B1003716018080
:10134000930641002324D600B766008093860618D2
:101350002326D600232801003305B500232AA10047
:1013600037053000232CA10013050101232EA10015
:101370002320D10223020102371501809305C10108
:101380002328B500B76500809385C518232AB500CA
:10139000B705008093850569739055308325C60095
:1013A00003268600130705012326B1022324C10268
:1013B00037B5AAAA1305A5AA2328A102232A010248
:1013C000232C0102232E0102371500801306054D40
:1013D0001305410493058102B716000097F0FFFF43
:1013E000E780803803558104631C050673250030AF
:1013F00013650508731005307325403093051001FF
:10140000939575003365B5007310453037C50030CE
:101410000326C5FF832585FF37150300130505D473
:101420003385A500B336B500B305D60033B6C50085
:1014300033F6C60063000604376500801305050B0C
:101440009305000197F0FFFFE780007C376500807F
:101450001305B5159305400297F0FFFFE780C07AAA
:10146000376500801305D50E9305700197F0FFFFD7
:10147000E7808079374600302320A6002322B6007B
:101480000325C10383254103637AB5021304C00811
:1014900083250103330585023385A50097F0FFFFFF
:1014A000E78040121305810297000000E780409B0F
:1014B0000325C10383254103E36CB5FC3765008038
:1014C0001305150C9305300197F0FFFFE780C073FB
:1014D000130101F6232E1108232C8108232A9108D9
:1014E00023282109232631092324410923225109D4
:1014F00023206109232E7107232C8107232A9107BA
:101500002328A1072326B10793840000138905002F
:101510001304050037650080832AC5EB832985EB1A
:10152000732500B0232AA104232E5105232C310555
:10153000130581059305410597400000E78040C6EB
:101540001315050163180508930B0000370C010003
:10155000130CFCFF130A500037650080130BA54CD9
:1015600063747A016F20001D33067B01B3067A4154
:101570001305010393850900E7800A000325410351
:101580003375850163180504032501033385AB001A
:10159000637475016F20C018930B0500E31245FDBD
:1015A00013050000B7650080138A854C631E050291
:1015B00013050103930610009385090013060A0022
:1015C000E7800A008325410303250103B3F5850164
:1015D000E38E05FC37650080130555119305200146
:1015E00097F0FFFFE7804062130A10006304450193
:1015F0006F2040142320910223228102930A0000CD
:10160000130BA000B71B0180930CA00A376D00805C
:10161000930D8DED6F00C004238C4B012308A102B4
:101620007325003083450103137575FF93953500CD
:1016300093F585003365B500731005302328310319
:10164000232AD102232CC102130501039730000085
:10165000E7808084938A1A00238C0B0063886A0DCC
:10166000B3896A039389A900732400B0F32420B0DE
:101670001385090097200000E7804067732520B09C
:10168000330695406374C5006F208009732500B050
:10169000B30685406374D5006F2080087325003041
:1016A000F325003093F575FF7390053083C58B01EA
:1016B000137585003335A000E38005F6230CA104E3
:1016C0007325003083458105137575FF93953500AB
:1016D00093F5850003278DED3365B5007310053054
:1016E00003A54D002328E10283A58D0003A7CD00AB
:1016F000232AA102230C9105232CB102232EE102FF
:10170000130581059305010373000000034581055E
:1017100013751500E31405F8376500801305351CB3
:101720009305C00297F0FFFFE780004E3765008009
:10173000832AC5EB832985EB732500B0232AA104F6
:10174000232E5105232C31051305810593054105F1
:1017500097400000E780C0A413150501E31C05E6CF
:10176000930B0000130AF00037650080130BB53AA5
:1017700063747A016F10107C33067B01B3067A41E3
:101780001305010393850900E7800A00032541033F
:1017900033758501E31005E4032501033385AB00B0
:1017A000637475016F10D077930B0500E31245FD4C
:1017B00013050000B7650080138A854C6316050287
:1017C00013050103930610009385090013060A0010
:1017D000E7800A008325410303250103B3F5850152
:1017E000E38E05FC6FF01FDF130A10006304450150
:1017F0006F105074930A0000371B0180930BA00AEE
:10180000B76C0080138D8CED930DA0006F00C004A9
:10181000230C4B012308A1027325003083450103EB
:10182000137575FF9395350093F585003365B50005
:101830007310053023283103232AD102232CC1023F
:101840001305010397200000E7800065938A1A00C2
:10185000230C0B006380BA0D93991A009389290019
:10186000732400B0F32420B01385090097300000E2
:10187000E7800091732520B0330695406374C5005E
:101880006F10106A732500B0B30685406374D500ED
:101890006F10106973250030F325003093F575FF44
:1018A0007390053083458B01137585003335A00097
:1018B000E38005F6230CA1047325003083458105E0
:1018C000137575FF9395350093F5850003A78CED8F
:1018D0003365B5007310053003254D002328E10260
:1018E00083258D000327CD00232AA102230C710537
:1018F000232CB102232EE102130581059305010378
:10190000730000000345810513751500E31405F805
:101910006FF09FE037650080832AC5EB832985EB54
:10192000732500B0232AA104232E5105232C310551
:10193000130581059305410597400000E780408627
:1019400013150501E31805C8930B0000130AC00026
:1019500037650080130BB53B63747A016F10905D9F
:1019600033067B01B3067A41130501039385090011
:10197000E7800A000325410333758501E31C05C494
:10198000032501033385AB00637475016F10505953
:10199000930B0500E31245FD13050000B7650080B9
:1019A000138A854C63160502130501039306100084
:1019B0009385090013060A00E7800A008325410386
:1019C00003250103B3F58501E38E05FC6FF09FC08D
:1019D000130A1000630445016F10D055930A0000EC
:1019E000130BA000B71B0180930CA00A376D008079
:1019F000930D8DED6F00C004238C4B012308A102D1
:101A00007325003083450103137575FF93953500E9
:101A100093F585003365B500731005302328310335
:101A2000232AD102232CC1021305010397200000B1
:101A3000E7808046938A1A00238C0B0063806A0D2E
:101A4000B3896A039389A900732400B0F32420B0FA
:101A50001385090097200000E7808078732520B067
:101A6000330695406374C5006F10904B732500B02A
:101A7000B30685406374D5006F10904A732500301B
:101A8000F325003093F575FF7390053083C58B0106
:101A9000137585003335A000E38005F6230CA104FF
:101AA0007325003083458105137575FF93953500C7
:101AB00093F5850003278DED3365B5007310053070
:101AC00003A54D002328E10283A58D0003A7CD00C7
:101AD000232AA102230C9105232CB102232EE1021B
:101AE000130581059305010373000000034581057B
:101AF00013751500E31405F86FF01FC237650080F9
:101B0000832AC5EB832985EB732500B0232AA10422
:101B1000232E5105232C310513058105930541051D
:101B200097300000E780C06713150501E31405AA8C
:101B3000930B0000130AE00037650080130B853C0F
:101B400063747A016F10103F33067B01B3067A414C
:101B50001305010393850900E7800A00032541036B
:101B600033758501E31805A6032501033385AB0012
:101B7000637475016F10D03A930B0500E31245FDB5
:101B800013050000B7650080138A854C63160502B3
:101B900013050103930610009385090013060A003C
:101BA000E7800A008325410303250103B3F585017E
:101BB000E38E05FC6FF01FA2130A100063044501B9
:101BC0006F105037930A0000130BA000B71B018061
:101BD000930CA00A376D0080930D8DED6F00C0044B
:101BE000238C4B012308A102732500308345010398
:101BF000137575FF9395350093F585003365B50032
:101C00007310053023283103232AD102232CC1026B
:101C10001305010397200000E7800028938A1A002B
:101C2000238C0B0063806A0DB3896A039389A90032
:101C3000732400B0F32420B013850900972000001E
:101C4000E7804074732520B0330695406374C50067
:101C50006F10102D732500B0B30685406374D50056
:101C60006F10102C73250030F325003093F575FFAD
:101C70007390053083C58B01137585003335A00043
:101C8000E38005F6230CA10473250030834581050C
:101C9000137575FF9395350093F5850003278DED3A
:101CA0003365B5007310053003A54D002328E1020C
:101CB00083A58D0003A7CD00232AA102230C910543
:101CC000232CB102232EE1021305810593050103A4
:101CD000730000000345810513751500E31405F832
:101CE0006FF09FA337650080832AC5EB832985EBBE
:101CF000732500B0232AA104232E5105232C31057E
:101D0000130581059305410597300000E7804049A0
:101D100013150501E310058C930B0000130AC00096
:101D200037650080130B753D63747A016F10902046
:101D300033067B01B3067A4113050103938509003D
:101D4000E7800A000325410333758501E314058804
:101D5000032501033385AB00637475016F10501CBC
:101D6000930B0500E31245FD13050000B7650080E5
:101D7000138A854C631605021305010393061000B0
:101D80009385090013060A00E7800A0083254103B2
:101D900003250103B3F58501E38E05FC6FF09F83F6
:101DA000130A1000630445016F10D018930A000055
:101DB000130BA000B71B0180930CA00A376D0080A5
:101DC000930D8DED6F00C004238C4B012308A102FD
:101DD0007325003083450103137575FF9395350016
:101DE00093F585003365B500731005302328310362
:101DF000232AD102232CC1021305010397200000DE
:101E0000E7808009938A1A00238C0B0063806A0D97
:101E1000B3896A039389A900732400B0F32420B026
:101E20001385090097200000E780C06F732520B05C
:101E3000330695406374C5006F10900E732500B093
:101E4000B30685406374D5006F10900D7325003084
:101E5000F325003093F575FF7390053083C58B0132
:101E6000137585003335A000E38005F6230CA1042B
:101E70007325003083458105137575FF93953500F3
:101E800093F5850003278DED3365B500731005309C
:101E900003A54D002328E10283A58D0003A7CD00F3
:101EA000232AA102230C9105232CB102232EE10247
:101EB00013058105930501037300000003458105A7
:101EC00013751500E31405F86FF01F853765008062
:101ED000832AC5EB832985EB732500B0232AA1044F
:101EE000232E5105232C310513058105930541054A
:101EF00097300000E780C02A13150501631C05EC2C
:101F0000930B0000130AE00037650080130B453E79
:101F100063747A016F10100233067B01B3067A41B5
:101F20001305010393850900E7800A000325410397
:101F300033758501631005EA032501033385AB0082
:101F4000637475016F10C07D930B0500E31245FDAE
:101F500013050000B7650080138A854C63160502DF
:101F600013050103930610009385090013060A0068
:101F7000E7800A008325410303250103B3F58501AA
:101F8000E38E05FC6FF00FE5130A100063044501B2
:101F90006F10407A930A0000130BA000B71B01805A
:101FA000930CA00A376D0080930D8DED6F00C00477
:101FB000238C4B012308A1027325003083450103C4
:101FC000137575FF9395350093F585003365B5005E
:101FD0007310053023283103232AD102232CC10298
:101FE0001305010397200000E78000EB938A1A0095
:101FF000238C0B0063806A0DB3896A039389A9005F
:10200000732400B0F32420B013850900972000004A
:10201000E780806C732520B0330695406374C5005B
:102020006F100070732500B0B30685406374D5004F
:102030006F10006F73250030F325003093F575FFA6
:102040007390053083C58B01137585003335A0006F
:10205000E38005F6230CA104732500308345810538
:10206000137575FF9395350093F5850003278DED66
:102070003365B5007310053003A54D002328E10238
:1020800083A58D0003A7CD00232AA102230C91056F
:10209000232CB102232EE1021305810593050103D0
:1020A000730000000345810513751500E31405F85E
:1020B0006FF08FE637650080832AC5EB832985EBB7
:1020C000732500B0232AA104232E5105232C3105AA
:1020D000130581059305410597300000E780400C0A
:1020E00013150501631805CE930B0000130AB00009
:1020F00037650080130B353F63747A016F1080637E
:1021000033067B01B3067A41130501039385090069
:10211000E7800A000325410333758501631C05CA66
:10212000032501033385AB00637475016F10405FB5
:10213000930B0500E31245FD13050000B765008011
:10214000138A854C631605021305010393061000DC
:102150009385090013060A00E7800A0083254103DE
:1021600003250103B3F58501E38E05FC6FF08FC6EF
:10217000930510006304B5006F10C05B232A0100B3
:102180003735EB7F1305D552232EA10037A56C847C
:102190001305B568232CA10037D5CCCC130DD5CCB5
:1021A000B71401801305A0002328A100832549004E
:1021B0000325090023080102E31C003A03A70500D8
:1021C0009305A00003264101B309B602232431017F
:1021D0009389A90023263101939929001306200031
:1021E0009385090083260102E7000700E302053812
:1021F000130A05009305A00A138609009740000002
:10220000E780C0C813753A00E31E05363715018014
:102210000325C5011305150093050A0003260101D6
:10222000631405006F10C04FB716018023AEA600DF
:1022300093560501B3C6A6000327C101B386E60283
:1022400013D7F600B346D70003278101B386E60211
:1022500013D70601B346D70033B7A6031357370089
:102260009307A0003307F702B386E64023A0D5000A
:10227000130515001306F6FF93854500E31206FAD1
:10228000E318002E832549000325090003A7050054
:10229000130620009385090083260102E70007004A
:1022A000E308052C930A05009305A00A138609008C
:1022B00097400000E78080BD13F53A00E314052C39
:1022C000E318002A832549000325090003A7050018
:1022D000130620009385090083260102E70007000A
:1022E000E3080528130B05009305A00A13860900CF
:1022F00097400000E78080B913753B00E314052880
:10230000832B0900832C4900F32D00B0732420B0E7
:1023100023287103232A9103232C51030325C10091
:10232000232EA102232061052322A1042324410599
:102330002326A1040326810013069600130501033A
:102340009305000097200000E7800053732520B01C
:10235000330685406374C5006F10803C732500B060
:10236000B306B5416374D5006F10803B7325003010
:10237000F325003093F575FF7390053083C5840114
:10238000137585003335A00063880506230CA1046E
:102390007325003083458105137575FF93953500CE
:1023A00093F585003365B50037670080832587ED99
:1023B00073100530130587ED032745002328B1026C
:1023C000832585000325C500232AE1021307A00AFF
:1023D000230CE104232CB102232EA1021305810555
:1023E0009305010373000000034581051375150073
:1023F000E31E05F66FF04FB293051000371401800D
:10240000230CB4002308A102732500308345010387
:10241000137575FF9395350093F585003365B50009
:10242000731005300325C1002328A102232AD102FD
:10243000232CC1021305010397200000E780C0A5EB
:10244000B7140180230C04009305A00A13050A00A9
:102450001386090097400000E78040A383A78C0003
:102460009306200013850B0093050A0013860900CC
:102470000324010213070400E78007009305A00A64
:1024800013850A001386090097400000E78000A02A
:1024900083A78C009306200013850B0093850A0008
:1024A0001386090013070400E78007009305A00ABC
:1024B00013050B001386090097400000E780009D7C
:1024C00083A78C009306200013850B0093050B0057
:1024D0001386090013070400E78007000325410164
:1024E00013051500832501019385A5002328B1005C
:1024F000232AA1009305A000E31AB5CA376500801E
:10250000832AC5EB832985EB732500B0232AA10418
:10251000232E5105232C3105130581059305410513
:1025200097300000E780C0C7131505016314058AC2
:10253000930B0000130AE00037650080130BF53F92
:1025400063747A016F10001F33067B01B3067A4172
:102550001305010393850900E7800A000325410361
:102560003375850163180586032501033385AB00A8
:10257000637475016F10C01A930B0500E31245FDDB
:1025800013050000B7650080138A854C63160502A9
:1025900013050103930610009385090013060A0032
:1025A000E7800A008325410303250103B3F5850174
:1025B000E38E05FC6FF00F82930510006304B500F5
:1025C0006F104017130D000037140180376500802D
:1025D000B7640080930C85ED130BA00083254900A0
:1025E00003250900230801026314007803A70500EE
:1025F0009305A000B30ABD02938AAA0093992A000A
:10260000130620009385090083260102E7000700D6
:1026100063000576130A05009305A00A13860900D6
:1026200097400000E780808613753A00631C0574AC
:1026300093050A0023A0A500130515009385450006
:10264000E31AABFE03250900232EA1000325490050
:10265000232CA100930B0000732500B0232AA100B6
:10266000F32D20B01305010393050A0013860A0019
:1026700093860B0097200000E78040450345410307
:10268000832501033335A000B3C5BB0093B5150006
:102690003375B50063000520938B1B00E3147BFDAD
:1026A000732520B03306B5416374C5006F10400731
:1026B000732500B083254101B306B5406374D5008E
:1026C0006F10000673250030F325003093F575FF79
:1026D0007390053083458401137585003335A00060
:1026E00063840506230CA10473250030834581050E
:1026F000137575FF9395350093F5850003A784ED59
:102700003365B5007310053003A54C002328E102A2
:1027100083A58C0003A7CC00232AA1021305A00ADD
:10272000230CA104232CB102232EE1021305810501
:10273000930501037300000003458105137515001F
:10274000E31205F86FE05FFDB71B018093051000F1
:10275000238CBB002308A1027325003083450103AD
:10276000137575FF9395350093F585003365B500B6
:102770007310053023285103232AD102232CC102D0
:102780001305010397100000E780007137140180E2
:10279000238C0B009305A00A13050A001386090079
:1027A00097300000E780806E032581018327850034
:1027B000930620000325C10193050A001386090032
:1027C00003270102E7800700130D1D00130BAB0068
:1027D0001305A000E314ADE037650080832AC5EB44
:1027E000832985EB732500B0232AA104232E5105EC
:1027F000232C310513058105930541059730000011
:10280000E780009A13150501630405006FE09FDC63
:10281000930B0000130A600137650080130BE5403D
:10282000E36A7A7133067B01B3067A41130501032B
:1028300093850900E7800A0003254103337585016C
:10284000630405006FE01FD9032501033385AB0046
:10285000E368756D930B0500E31445FD1305000057
:10286000B7650080138A854C6310050413050103C6
:10287000930610009385090013060A00E7800A00FA
:102880008325410303250103B3F58501E38E05FC90
:102890006FE05FD437650080130585199305E0006C
:1028A00097E0FFFFE780403693051000E314B5681A
:1028B000232E0100930D2000930C800083254900F6
:1028C00003250900230801026314004A032AC101F9
:1028D000131A1A0003A70500930B2A00B3897B0380
:1028E000139D29001306200093050D008326010285
:1028F000E7000700630E0546930405009305A00A50
:102900001304050013060D0097300000E7800058FF
:1029100013F5340063180546631C00448325490001
:102920000325090003A705001306200093050D00E9
:1029300083260102E7000700630C0542930A0500A5
:102940009305A00A13060D0097300000E78000549D
:1029500013F53A0063180542631C004083254900C3
:102960000325090003A705001306200093050D00A9
:1029700083260102E7000700630C053E130B0500E8
:102980009305A00A13060D0097300000E780005061
:1029900013753B006318053E03250900232CA10095
:1029A00003254900232AA100130500009305000018
:1029B000130A3A001386040093860A0013070B00DB
:1029C000930705001308060093880600930207008A
:1029D00013830D0063F2373D2320080023A0080075
:1029E00023A002001303F3FF938242009388480060
:1029F0001308480093871700E31E03FCB3874503C1
:102A000063FC3739939727003388F400930810004C
:102A100023201801B387FA00930F100023A0170199
:102A20009385150033079701B38696013306960107
:102A30003305B501E39675F913060000732500B060
:102A4000F32520B09386040013070000B307760334
:102A500013880A00B308F70093982800B3081B01F5
:102A600083A208001383060093030800138E0D0051
:102A7000832E030003AF0300B30EDF03B3825E00B7
:102A800023A05800130EFEFFB383930113034300EA
:102A9000E3100EFE1307170013084800E31C77FB32
:102AA00013061600B3869601E31076FBF32620B0DA
:102AB0003386B640E3E6C646F32500B0B386A540AC
:102AC000E3E0D54673250030F325003093F575FF1C
:102AD00073900530B715018083C585011375850096
:102AE0003335A00063880506230CA104732500304C
:102AF00083458105137575FF9395350093F5850022
:102B00003365B50037670080832587ED7310053086
:102B1000130587ED032745002328B102832585008F
:102B20000325C500232AE1021307A00A230CE104B0
:102B3000232CB102232EA102130581059305010365
:102B4000730000000345810513751500E31C05F6AD
:102B50006FE09FBC37140180230CF4012308A1020D
:102B60007325003083450103137575FF9395350078
:102B700093F585003365B500731005302328710384
:102B8000232AD102232CC102130501039710000050
:102B9000E7808030230C04009305A00A138404000E
:102BA0001385040013060D0097300000E780002E07
:102BB0008329410183A78900930620008324810192
:102BC000138504009305040013060D00032401027D
:102BD00013070400E78007009305A00A13850A0085
:102BE00013060D0097300000E780402A83A7890074
:102BF000930620001385040093850A0013060D0038
:102C000013070400E78007009305A00A13050B00D3
:102C100013060D0097300000E780402783A7890046
:102C2000930620001385040093050B0013060D0086
:102C300013070400E78007000325C10113051500F1
:102C4000938D2D00938C8C00232EA1009305A00062
:102C5000E316B5C603254102E312050E1306000074
:102C6000732500B0B706004093861600F32520B008
:102C70001307000E9307001E2308E102230CE10452
:102C8000230AE104A305E1061308000A938806005D
:102C900083420103A38F58FE83428105238058009D
:102CA00083424105A38058008342B1062381580026
:102CB0001308F8FF93884800E31C08FC130616006D
:102CC00093860628E31AF6FAF32620B03386B64038
:102CD000E3E8C624F32500B0B386A540E3E2D5249B
:102CE000371701809307A00A37680080930888EDA2
:102CF00073250030F325003093F575FF7390053090
:102D000083450702137585003335A0006380050AEB
:102D1000230CA1047325003083458105137575FFCD
:102D20009395350093F58500832288ED3365B500D2
:102D30007310053003A548002328510283A588009D
:102D400083A2C800232AA102230CF104232CB10280
:102D5000232E510213058105930501037300000022
:102D60000345810513751500E31405F86FE0DF9A3C
:102D7000376500801305D50E9305700197E0FFFFBE
:102D8000E78080E8376500801305751493053001EE
:102D900097E0FFFFE78040E7376500801305150CDB
:102DA0009305300197E0FFFFE78000E637140180CC
:102DB000930510002300B4022308A10273250030FC
:102DC00083450103137575FF9395350093F58500D1
:102DD0003365B5007310053023280102232AD10280
:102DE000232CC1021305010397200000E78080D146
:102DF00023000402930440061309D0121305D000E7
:102E0000930550061306900893860400972000004F
:102E1000E780C0F393841400E39224FF1305F001CC
:102E20002308A102230CA104230AA104A305A106DF
:102E300003460103B70501402384C5A60346810567
:102E4000A384C5A6034641052385C5A60346B1064E
:102E5000A385C5A6034601032386C5A603468105AF
:102E6000A386C5A6034641052387C5A60346B1062A
:102E7000A387C5A6034601032388C5A6034681058B
:102E8000A388C5A6034641052389C5A60346B10606
:102E9000A389C5A603460103238AC5A60346810567
:102EA000A38AC5A603464105238BC5A60346B106E2
:102EB000A38BC5A603460103238CC5A60346810543
:102EC000A38CC5A603464105238DC5A60346B106BE
:102ED000A38DC5A603460103238EC5A6034681051F
:102EE000A38EC5A603464105238FC5A60346B1069A
:102EF000A38FC5A6034601032380C5A80346810509
:102F0000A380C5A8034641052381C5A80346B10691
:102F1000A381C5A8034601032382C5A803468105F2
:102F2000A382C5A8034641052383C5A80346B1066D
:102F3000A383C5A8A383A5A62383A5A6A382A5A62C
:102F4000372600001306F6F12394C5A82308A10232
:102F5000230CA104230AA104A305A106034701032E
:102F6000B7F602402384E6E603478105A384E6E63C
:102F7000034741052385E6E60347B106A385E6E658
:102F8000034701032386E6E603478105A386E6E6B9
:102F9000034741052387E6E60347B106A387E6E634
:102FA000034701032388E6E603478105A388E6E695
:102FB000034741052389E6E60347B106A389E6E610
:102FC00003470103238AE6E603478105A38AE6E671
:102FD00003474105238BE6E60347B106A38BE6E6EC
:102FE00003470103238CE6E603478105A38CE6E64D
:102FF00003474105238DE6E60347B106A38DE6E6C8
:1030000003470103238EE6E603478105A38EE6E628
:1030100003474105238FE6E60347B106A38FE6E6A3
:10302000034701032380E6E803478105A380E6E820
:10303000034741052381E6E80347B106A381E6E89B
:10304000034701032382E6E803478105A382E6E8FC
:10305000034741052383E6E80347B106A383E6E877
:10306000A383A6E62383A6E6A382A6E62394C6E866
:103070001306900C938595A8238EA5FC2380A500AC
:103080001306F6FF93850528E31806FE1305F001E5
:103090002308A102230CA104230AA104A305A1066D
:1030A00003460103B70501402384C5CE03468105CD
:1030B000A384C5CE034641052385C5CE0346B1068C
:1030C000A385C5CE034601032386C5CE03468105ED
:1030D000A386C5CE034641052387C5CE0346B10668
:1030E000A387C5CE034601032388C5CE03468105C9
:1030F000A388C5CE034641052389C5CE0346B10644
:10310000A389C5CE03460103238AC5CE03468105A4
:10311000A38AC5CE03464105238BC5CE0346B1061F
:10312000A38BC5CE03460103238CC5CE0346810580
:10313000A38CC5CE03464105238DC5CE0346B106FB
:10314000A38DC5CE03460103238EC5CE034681055C
:10315000A38EC5CE03464105238FC5CE0346B106D7
:10316000A38FC5CE034601032380C5D00346810546
:10317000A380C5D0034641052381C5D00346B106CF
:10318000A381C5D0034601032382C5D00346810530
:10319000A382C5D0034641052383C5D00346B106AB
:1031A000A383C5D0372600001306F6F12393C5CEBE
:1031B0002384A5D02308A102230CA104230AA1047F
:1031C000A305A10603470103B7F602402384E6BE28
:1031D00003478105A384E6BE034741052385E6BE78
:1031E0000347B106A385E6BE034701032386E6BE77
:1031F00003478105A386E6BE034741052387E6BE54
:103200000347B106A387E6BE034701032388E6BE52
:1032100003478105A388E6BE034741052389E6BE2F
:103220000347B106A389E6BE03470103238AE6BE2E
:1032300003478105A38AE6BE03474105238BE6BE0B
:103240000347B106A38BE6BE03470103238CE6BE0A
:1032500003478105A38CE6BE03474105238DE6BEE7
:103260000347B106A38DE6BE03470103238EE6BEE6
:1032700003478105A38EE6BE03474105238FE6BEC3
:103280000347B106A38FE6BE034701032380E6C0D0
:1032900003478105A380E6C0034741052381E6C0BB
:1032A0000347B106A381E6C0034701032382E6C0BA
:1032B00003478105A382E6C0034741052383E6C097
:1032C0000347B106A383E6C02393C6BE2384A6C0EA
:1032D0001306700C938585D0238FA5FC2380A50051
:1032E0001306F6FF93850528E31806FE1305F00183
:1032F0002308A102230CA104230AA104A305A1060B
:1033000003460103B70501402384C5F60346810542
:10331000A384C5F6034641052385C5F60346B106D9
:10332000A385C5F6034601032386C5F6034681053A
:10333000A386C5F6034641052387C5F60346B106B5
:10334000A387C5F6034601032388C5F60346810516
:10335000A388C5F6034641052389C5F60346B10691
:10336000A389C5F603460103238AC5F603468105F2
:10337000A38AC5F603464105238BC5F60346B1066D
:10338000A38BC5F603460103238CC5F603468105CE
:10339000A38CC5F603464105238DC5F60346B10649
:1033A000A38DC5F603460103238EC5F603468105AA
:1033B000A38EC5F603464105238FC5F60346B10625
:1033C000A38FC5F6034601032380C5F80346810594
:1033D000A380C5F8034641052381C5F80346B1061D
:1033E000A381C5F8034601032382C5F8034681057E
:1033F000A382C5F8034641052383C5F80346B106F9
:10340000A383C5F8A383A5F62308A102230CA10476
:10341000230AA104A305A1068346010337F602404F
:103420002304D69683468105A304D6968346410598
:103430002305D6968346B106A305D6968346010397
:103440002306D69683468105A306D6968346410574
:103450002307D6968346B106A307D6968346010373
:103460002308D69683468105A308D6968346410550
:103470002309D6968346B106A309D696834601034F
:10348000230AD69683468105A30AD696834641052C
:10349000230BD6968346B106A30BD696834601032B
:1034A000230CD69683468105A30CD6968346410508
:1034B000230DD6968346B106A30DD6968346010307
:1034C000230ED69683468105A30ED69683464105E4
:1034D000230FD6968346B106A30FD69683460103E3
:1034E0002300D69883468105A300D69883464105DC
:1034F0002301D6988346B106A301D69883460103DB
:103500002302D69883468105A302D69883464105B7
:103510002303D6988346B106A303D698A303A696A1
:103520001306500C938575F82380A5FE2380A50013
:103530001306F6FF93850528E31806FE930A00009C
:1035400037650080832485EB0329C5EB9309F000E0
:1035500037650080130A551063EE591D33065A0172
:10356000B38659411305010393850400E700090060
:103570000325410333758501630405006FE08F85E2
:10358000032501033385AA00636C5519930A0500CE
:10359000E31435FD930400000F00F00F1309400001
:1035A0009309A00A376A0080930A8AED371B0180CD
:1035B000930B1000130C002037150080930C054D61
:1035C000F32600B0732620B063629904230C310502
:1035D00003258AED83A54A0003A78A0083A7CA00B2
:1035E0002328A102232AB102232CE102232EF10277
:1035F0001305810593050103730000000345810550
:1036000013751500631C05026FE00F91230A010476
:10361000230C310523288103232A0102232C910343
:10362000230E0102130581059305010373000000B9
:10363000034581051375150063180510732520B027
:103640003306C540636EC50C732500B0B306D54084
:103650006368D50C73250030F325003093F575FFB2
:103660007390053083450B02137585003335A00038
:1036700063820506230CA104732500308345810570
:10368000137575FF9395350093F5850003278AED33
:103690003365B5007310053003A54A002328E10205
:1036A00083A58A0003A7CA00232AA102230C31059F
:1036B000232CB102232EE10213058105930501039A
:1036C000730000000345810513751500E31405F828
:1036D0006FE08F8423007B032308A1027325003051
:1036E00083450103137575FF9395350093F58500A8
:1036F0003365B50073100530032541022328A1026C
:10370000232AD102232CC1021305010397100000C4
:10371000E780403F9384140023000B02E39204EA05
:10372000376500801305050B9305000197D0FFFF57
:10373000E780804D376500801305B515930540027D
:1037400097D0FFFFE780404C376500801305051FC9
:103750009305A00297D0FFFFE780004B638006022D
:1037600003460600B70600102380C60013061000AB
:103770002320C500232205006780000023200500C8
:103780002322050067800000130101FF93763500B6
:10379000639E06089377F60F9306000263F2D70A3A
:1037A0008326450003270500638C0702930710005A
:1037B000B397C7003386E6003388C7001308F8FFC5
:1037C000B338C80023061101636AC802B307F0408A
:1037D000B377F8003386C74063F6C7006F00C003B5
:1037E000130600003306C7006368E602B305B6009F
:1037F00063E4C502032785006378B7001305000062
:1038000013010101678000002320B5003385C60045
:103810001301010167800000376500801305050B67
:103820009305000197D0FFFFE780003E37650080D9
:10383000130575149305300197D0FFFFE780C03C56
:10384000376500801305751A9305B00197D0FFFF07
:10385000E780803B937635006392060A8326450015
:1038600063E4D508B387C50063E6B7068325850002
:103870003388B6006360D8066368F806032805003D
:10388000B38606016388D7003335E600134515007B
:1038900067800000637EE6003307C74033080701F6
:1038A000636AE80263F20503130500006780000005
:1038B000B305C740B305B800636EB8002320B50058
:1038C0001305100067800000232005011305100078
:1038D00067800000376500801305050B9305000124
:1038E00097D0FFFFE7804032376500801305F5373A
:1038F0009305800197D0FFFFE78000313765008096
:10390000130575149305300197D0FFFFE780C02F92
:1039100093763500639606068326450063E8D50452
:103920003387C500636AB70283258500B385B60077
:1039300063E4D50263ECE50283250500B386B60097
:103940006304D700678000003386C54063E6C50086
:103950002320C50067800000376500801305050B34
:103960009305000197D0FFFFE780002A37650080AC
:103970001305F5379305800197D0FFFFE780C02836
:1039800037650080130575149305300197D0FFFF4C
:10399000E7808027130101FE232E1100232C8100D4
:1039A0001304050013753500631A050E138705000F
:1039B0009307A00A37680080930888ED73250030CC
:1039C000F325003093F575FF73900530834584002F
:1039D000137585003335A000638A0506A303A10093
:1039E0007325003083457100137575FF939535007D
:1039F00093F58500832288ED3365B500731005309B
:103A000003A548002324510083A5880083A2C80091
:103A10002326A100A303F1002328B100232A51008B
:103A200013057100930581007300000003457100C8
:103A300013751500E31405F8376500801305351C70
:103A40009305C00297D0FFFFE780001C930510008C
:103A50002304B4002304A1007325003083458100B2
:103A6000137575FF9395350093F585003365B500A3
:103A70007310053003254400832705000325040047
:103A800093050700E7800700230404008320C10199
:103A90000324810113010102678000003765008063
:103AA000130575149305300197D0FFFFE780C0150B
:103AB000130101FE232E1100232C810013040500A5
:103AC00013753500631A050E138805009308A00AC4
:103AD000B7620080138382ED73250030F325003038
:103AE00093F575FF73900530834584001375850049
:103AF0003335A000638A0506A303A10073250030B7
:103B000083457100137575FF9395350093F5850016
:103B100083A382ED3365B5007310053003254300A0
:103B200023247100832583008323C3002326A1005F
:103B3000A30311012328B100232A7100130571008A
:103B40009305810073000000034571001375150093
:103B5000E31405F8376500801305351C9305C00292
:103B600097D0FFFFE780400A930510002304B400BC
:103B70002304A1007325003083458100137575FF70
:103B80009395350093F585003365B50073100530C6
:103B900003254400832845000325040093050800FD
:103BA000E7800800230404008320C101032481016D
:103BB000130101026780000037650080130575144A
:103BC0009305300197D0FFFFE7800004130101FE49
:103BD000232E1100232C81001304050013753500DA
:103BE000631A050E938705001308A00AB7680080C2
:103BF000938288ED73250030F325003093F575FF2F
:103C00007390053083458400137585003335A0001B
:103C1000638A0506A303A100732500308345710064
:103C2000137575FF9395350093F5850003A388ED13
:103C30003365B5007310053003A5420023246100ED
:103C400083A5820003A3C2002326A100A3030101D0
:103C50002328B100232A6100130571009305810018
:103C6000730000000345710013751500E31405F897
:103C7000376500801305351C9305C00297D0FFFF00
:103C8000E78080F8930510002304B4002304A1000A
:103C90007325003083458100137575FF93953500BA
:103CA00093F585003365B500731005300325440096
:103CB000032885000325040093850700E70008001A
:103CC000230404008320C1010324810113010102A4
:103CD0006780000037650080130575149305300177
:103CE00097D0FFFFE78040F26304051A130101FD3E
:103CF000232681022324910223222103232031033E
:103D0000232E4101232C5101232A61012328710113
:103D10002326810123249101930A0000130A000045
:103D20001304000093040000930E0000130E000023
:103D3000930700001308000093050000130600001D
:103D40009306000093080000930200001303000094
:103D500093030000130710006F008008330B540119
:103D6000333E8B00B38BC40133B49B00337E8E0093
:103D700033846700B30ED401338CCE01333EDC01B3
:103D8000B3BE8E00B337F40033087800B307F800F1
:103D9000B387D701B38CC7011305F5FF938E0800D5
:103DA000138E02009307030013880300930A070091
:103DB000138A0500130406009384060013070F00FE
:103DC00093850F00130609009386090093080B00E2
:103DD00093820B0013030C0093830C00630405080B
:103DE000338FEA00B33A5F01B30FBA00B38F5F01BC
:103DF00063844F01B3BA4F01B309C4003389590139
:103E0000333A3901B3B98900338BD400B3093B018C
:103E1000B3894901638E990033BA9900334489000C
:103E2000B3C4990033649400631E04006F00C001A2
:103E3000333A890033448900B3C499003364940051
:103E400063040400930A0A0033841E01B33ED401C4
:103E5000B3045E00B384D401E382C4F1B3BEC401F1
:103E60006FF0DFEF0324C1028324810203294102A2
:103E700083290102032AC101832A8101032B410105
:103E8000832B0101032CC100832C8100130101034A
:103E900067800000130101FC232E1102232C8102F4
:103EA000232A9102232821032326310323244103BB
:103EB0002322510323206103232E71019304050063
:103EC000930A0000370A0100376500808329C5EB9B
:103ED000032485EB130AFAFF732900B02322310172
:103EE00023208100130BF00037650080930BF5460B
:103EF00063625B2733865B01B3065B4113050101F7
:103F000093050400E780090003254101337545014D
:103F1000631E051E032501013385AA00636655252E
:103F2000930A0500E31665FD37650080930505ECEF
:103F3000130601001305090097200000E78000D058
:103F4000131505016314051C130B00001309200051
:103F500037650080930AF546636E691F33866A01F0
:103F600013061601B3066941130501019305040008
:103F7000E7800900032541013375450163180518E1
:103F8000032501013305AB006360651F130B0500BA
:103F9000E31425FD130B00002324810023263101A7
:103FA0001309600037650080930A35486364691B14
:103FB00033866A01B30669411305010193050400C4
:103FC000E78009000325410133754501631005149D
:103FD000032501013305AB0063686519130B050068
:103FE000E31625FD03A50400B7650080938505EC65
:103FF0001306810097200000E78040C413150501D7
:1040000063160510130B000013098000376500804C
:10401000930A35486360691533866A011306860082
:10402000B30669411305010193050400E780090007
:104030000325410133754501631A050C0325010170
:104040003305AB0063626513130B0500E31425FD14
:1040500003A54400B7650080938505EC1306810035
:1040600097200000E78080BD131505016310050A45
:10407000130B00001309A00037650080930A354830
:10408000636A690D33866A0113062601B306694126
:104090001305010193050400E78009000325410190
:1040A0003375450163140506032501013305AB0093
:1040B000636C650B130B0500E31425FD03A5840059
:1040C000B7650080938505EC1306810097200000FA
:1040D000E780C0B613150501631A0502B7650080B5
:1040E0009384854C631E050213050101930610009D
:1040F0009305040013860400E7800900832541012D
:1041000003250101B3F54501E38E05FC3765008009
:10411000130555119305200197D0FFFFE780C0AE2E
:10412000930510006318B5028320C10303248103A3
:1041300083244103032901038329C102032A810245
:10414000832A4102032B0102832BC10113010104C5
:1041500067800000376500801305B51593054002A0
:1041600097D0FFFFE78040AA376500801305050B55
:104170009305000197D0FFFFE78000A91703000017
:1041800067008300130101FF23261100232481000F
:104190002322910023202101930420001304050011
:1041A00013090000636E95001305F4FF97000000EB
:1041B000E78080FD1304E4FF33092501E37694FED4
:1041C000330524018320C10003248100832441009E
:1041D0000329010013010101678000006300051A33
:1041E000930500001305F5FF9385150093851500D1
:1041F000938515009385150093851500938515000B
:1042000093851500938515009385150093851500FA
:1042100093851500938515009385150093851500EA
:1042200093851500938515009385150093851500DA
:1042300093851500938515009385150093851500CA
:1042400093851500938515009385150093851500BA
:1042500093851500938515009385150093851500AA
:10426000938515009385150093851500938515009A
:10427000938515009385150093851500938515008A
:10428000938515009385150093851500938515007A
:10429000938515009385150093851500938515006A
:1042A000938515009385150093851500938515005A
:1042B000938515009385150093851500938515004A
:1042C000938515009385150093851500938515003A
:1042D000938515009385150093851500938515002A
:1042E000938515009385150093851500938515001A
:1042F000938515009385150093851500938515000A
:1043000093851500938515009385150093851500F9
:1043100093851500938515009385150093851500E9
:1043200093851500938515009385150093851500D9
:1043300093851500938515009385150093851500C9
:1043400093851500938515009385150093851500B9
:1043500093851500938515009385150093851500A9
:104360009385150093851500938515009385150099
:104370009385150093851500E31605E66780000018
:10438000630E05181305F5FF13001000130010004D
:104390001300100013001000130010001300100091
:1043A0001300100013001000130010001300100081
:1043B0001300100013001000130010001300100071
:1043C0001300100013001000130010001300100061
:1043D0001300100013001000130010001300100051
:1043E0001300100013001000130010001300100041
:1043F0001300100013001000130010001300100031
:104400001300100013001000130010001300100020
:104410001300100013001000130010001300100010
:104420001300100013001000130010001300100000
:1044300013001000130010001300100013001000F0
:1044400013001000130010001300100013001000E0
:1044500013001000130010001300100013001000D0
:1044600013001000130010001300100013001000C0
:1044700013001000130010001300100013001000B0
:1044800013001000130010001300100013001000A0
:104490001300100013001000130010001300100090
:1044A0001300100013001000130010001300100080
:1044B0001300100013001000130010001300100070
:1044C0001300100013001000130010001300100060
:1044D0001300100013001000130010001300100050
:1044E0001300100013001000130010001300100040
:1044F0001300100013001000130010001300100030
:10450000130010001300100013001000130010001F
:104510001300100013001000E31605E6678000008A
:10452000130101FF9305C1002326B1006300051AA2
:1045300083A5050083A5050083A5050083A50500C7
:1045400083A5050083A5050083A5050083A50500B7
:1045500083A5050083A5050083A5050083A50500A7
:1045600083A5050083A5050083A5050083A5050097
:1045700083A5050083A5050083A5050083A5050087
:1045800083A5050083A5050083A5050083A5050077
:1045900083A5050083A5050083A5050083A5050067
:1045A00083A5050083A5050083A5050083A5050057
:1045B00083A5050083A5050083A5050083A5050047
:1045C00083A5050083A5050083A5050083A5050037
:1045D00083A5050083A5050083A5050083A5050027
:1045E00083A5050083A5050083A5050083A5050017
:1045F00083A5050083A5050083A5050083A5050007
:1046000083A5050083A5050083A5050083A50500F6
:1046100083A5050083A5050083A5050083A50500E6
:1046200083A5050083A5050083A5050083A50500D6
:1046300083A5050083A5050083A5050083A50500C6
:1046400083A5050083A5050083A5050083A50500B6
:1046500083A5050083A5050083A5050083A50500A6
:1046600083A5050083A5050083A5050083A5050096
:1046700083A5050083A5050083A5050083A5050086
:1046800083A5050083A5050083A5050083A5050076
:1046900083A5050083A5050083A5050083A5050066
:1046A00083A5050083A5050083A5050083A5050056
:1046B00083A5050083A5050083A5050083A5050046
:1046C0001305F5FF2326B100E31405E613010101EC
:1046D00067800000630E05181305F5FF0320000036
:1046E000032000000320000003200000032000003E
:1046F000032000000320000003200000032000002E
:10470000032000000320000003200000032000001D
:10471000032000000320000003200000032000000D
:1047200003200000032000000320000003200000FD
:1047300003200000032000000320000003200000ED
:1047400003200000032000000320000003200000DD
:1047500003200000032000000320000003200000CD
:1047600003200000032000000320000003200000BD
:1047700003200000032000000320000003200000AD
:10478000032000000320000003200000032000009D
:10479000032000000320000003200000032000008D
:1047A000032000000320000003200000032000007D
:1047B000032000000320000003200000032000006D
:1047C000032000000320000003200000032000005D
:1047D000032000000320000003200000032000004D
:1047E000032000000320000003200000032000003D
:1047F000032000000320000003200000032000002D
:10480000032000000320000003200000032000001C
:10481000032000000320000003200000032000000C
:1048200003200000032000000320000003200000FC
:1048300003200000032000000320000003200000EC
:1048400003200000032000000320000003200000DC
:1048500003200000032000000320000003200000CC
:10486000032000000320000003200000E31605E6FB
:104870006780000063F8C524130101FA232E110498
:10488000232C8104232A9104232821052326310582
:1048900023244105232251059304060013840500B7
:1048A000930905000325C5012320A10203A5890161
:1048B000232EA10003A54901232CA10003A5090172
:1048C000232AA10003A5C9002328A10003A589006C
:1048D0002326A10003A549002324A10003A5090064
:1048E000B305B64093DA150033898A002322A1006C
:1048F000130541009305040013060900970000000A
:10490000E78080F703A5C9012320A10403A589013D
:10491000232EA10203A54901232CA10203A509010D
:10492000232AA10203A5C9002328A10203A5890007
:104930002326A10203A549002324A10203A50900FF
:104940002322A102130A19001305410293050A004C
:104950001386040097000000E78000F283A6890018
:1049600083A5890103A5090133068A401318240091
:1049700033870501938706008328070023A01701CA
:104980001306F6FF1307470093874700E31606FE5A
:104990003386244163982401130700009307000025
:1049A0006F00C009131929003307B9001307470026
:1049B00093070500930806008322070023A05700F1
:1049C0009388F8FF1307470093874700E39608FE94
:1049D0001307000093070000338805016F004003B0
:1049E000B338130113C31800B387670033071701E7
:1049F0002320580013041400B3B8FA0093C8F8FF3A
:104A0000B332C700B3F858001308480063860802A1
:104A100093982700B388160183A8080093122700F3
:104A2000B302550003A3020093820800E3EA68FA88
:104A3000930203006FF0DFFA63E0FA041318240016
:104A400033880501B388FA409388180093922700B1
:104A5000B3865600330454013304F44013041400A5
:104A600083A706002320F800130848009388F8FF66
:104A700093864600E39608FE6376C702131424006B
:104A8000B3858500931627003305D50083260500DE
:104A900023A0D50013071700938545001305450093
:104AA000E366C7FE8320C1050324810583244105F5
:104AB000032901058329C104032A8104832A4104AF
:104AC0001301010667800000630E06001307000053
:104AD00083A70500638ED700130717009385450051
:104AE000E318E6FE2322050023200500678000006E
:104AF0002320E500930510002302B5006780000025
:104B0000130101FC232E1102232C8102232A91027E
:104B10002328210323263103232441032322510385
:104B20002320610393040500376500800329C5EB4A
:104B3000032485EB732500B02322A1002326210145
:104B40002324810013058100930541009700000094
:104B5000E78000651315050163120518130B0000AB
:104B6000B70901009389F9FF23288100232A210135
:104B7000130A500037650080930A254A63626A1B56
:104B800033866A01B3066A41130581019305040067
:104B9000E70009000325C1013375350163100514D1
:104BA000032581013305AB0063666519130B05000E
:104BB000E31645FD03A50400B7650080938505EC69
:104BC0001306010197100000E78040071315050147
:104BD00063160510130B0000130A80003765008070
:104BE000930A254A636E6A1333866A0113067600B8
:104BF000B3066A411305810193050400E70009002B
:104C00000325C10133753501631A050C03258101A4
:104C10003305AB0063606513130B0500E31445FD1A
:104C200003A54400B7650080938505EC13060101D8
:104C300097100000E7808000131505016310050A36
:104C4000130B0000130AA00037650080930A254A61
:104C500063686A0D33866A0113061601B3066A415A
:104C60001305810193050400E70009000325C10134
:104C70003375350163140506032581013305AB0047
:104C8000636A650B130B0500E31445FD03A584005F
:104C9000B7650080938505EC1306010197100000AD
:104CA000E780C0F913150501631A0502B765008096
:104CB0009384854C631E0502130581019306100041
:104CC0009305040013860400E70009008325C10151
:104CD00003258101B3F53501E38E05FC37650080BE
:104CE000130555119305200197C0FFFFE780C0F120
:104CF000930510006316B5028320C10303248103CA
:104D000083244103032901038329C102032A810269
:104D1000832A4102032B0102130101046780000072
:104D2000376500801305B5159305400297C0FFFF56
:104D3000E78080ED376500801305050B93050001C2
:104D400097C0FFFFE78040EC130101FE232E110006
:104D5000232C8100232A91002328210123263101BD
:104D60001307F01D636ED7189304060013040500A3
:104D7000A305A1002305A100A304A1002304A10011
:104D8000130500280346B1003389A602B709004085
:104D9000330539012304C5060346A100A304C50653
:104DA000034691002305C50603468100A305C506F9
:104DB0000346B1002306C5060346A100A306C506A7
:104DC000034691002307C50603468100A307C506D5
:104DD0000346B1002308C5060346A100A308C50683
:104DE000034691002309C50603468100A309C506B1
:104DF0000346B100230AC5060346A100A30AC5065F
:104E000003469100230BC50603468100A30BC5068C
:104E10000346B100230CC5060346A100A30CC5063A
:104E200003469100230DC50603468100A30DC50668
:104E30000346B100230EC5060346A100A30EC50616
:104E400003469100230FC50603468100A30FC50644
:104E50000346B1002300C5080346A100A300C5080E
:104E6000034691002301C50803468100A301C5083C
:104E70000346B1002302C5080346A100A302C508EA
:104E8000034691002303C50803468100A303C50818
:104E90003305B500130680063306B64093050400BB
:104EA00097100000E78080FE138584F7930570F764
:104EB000637AB502138589083305A900138694F730
:104EC000930504008320C10103248101832441014F
:104ED000032901018329C1001301010217130000F6
:104EE0006700C3FA8320C1010324810183244101A7
:104EF000032901018329C100130101026780000019
:104F0000376500801305150C9305300197C0FFFF2E
:104F1000E78080CF130101FD2326110223248102A3
:104F20002322910223202103232E3101232C41012E
:104F3000232A5101232861019384050013040500ED
:104F4000130B00000329050083294500130A1001F3
:104F500037650080930AB521636C6A0D33866A0158
:104F6000B3066A411305810093050900E780090033
:104F70000325C100931505016398050803258100E9
:104F80003305AB006360650D130B0500E31645FDAB
:104F900003A50400B7650080938505EC13060400A3
:104FA00097100000E78080C993150501639E0504F2
:104FB000130A000083240400032444001309200082
:104FC000376500809309B521636449073386490139
:104FD00013063601B3064941130581009385040089
:104FE000E70004000325C10093150501639E050039
:104FF000032581003305AA0063664505130A0500F1
:10500000E31425FD130500008320C102032481025F
:1050100083244102032901028329C101032A81015A
:10502000832A4101032B0101130101036780000062
:10503000376500801305B5159305400297C0FFFF43
:10504000E78080BC376500801305050B93050001E0
:1050500097C0FFFFE78040BB130101FD232611022B
:10506000232481022322910223202103232E3101B4
:10507000232C4101232A5101232861019384050037
:1050800013040500130B00000329050083294500C4
:10509000130A000137650080930A2524636C6A0DAA
:1050A00033866A01B3066A4113058100930509003E
:1050B000E78009000325C1009315050163980508E1
:1050C000032581003305AB006360650D130B0500FC
:1050D000E31645FD03A50400B7650080938505EC44
:1050E0001306040097100000E78040B593150501F2
:1050F000639E0504130A0000832404000324440073
:10510000130920003765008093092524636449074B
:105110003386490113062601B30649411305810070
:1051200093850400E70004000325C10093150501E1
:10513000639E0500032581003305AA0063664505CB
:10514000130A0500E31425FD130500008320C102A6
:105150000324810283244102032901028329C1011E
:10516000032A8101832A4101032B01011301010359
:1051700067800000376500801305B5159305400270
:1051800097C0FFFFE78040A8376500801305050B37
:105190009305000197C0FFFFE78000A7130101FD01
:1051A000232611022324810223229102232021039A
:1051B000232E3101232C4101232A5101232861018F
:1051C0009384050013040500130B00000329050058
:1051D00083294500130AE00037650080930A85396A
:1051E000636C6A0D33866A01B3066A411305810058
:1051F00093050900E78009000325C1009315050107
:1052000063980508032581003305AB006360650DD5
:10521000130B0500E31645FD03A50400B7650080E8
:10522000938505EC1306040097100000E78000A1A9
:1052300093150501639E0504130A000083240400EE
:105240000324440013092000376500809309853941
:10525000636449073386490113060601B3064941D1
:105260001305810093850400E70004000325C100B5
:1052700093150501639E0500032581003305AA00EF
:1052800063664505130A0500E31425FD13050000B8
:105290008320C102032481028324410203290102E5
:1052A0008329C101032A8101832A4101032B0101C2
:1052B0001301010367800000376500801305B515F1
:1052C0009305400297C0FFFFE78000943765008098
:1052D0001305050B9305000197C0FFFFE780C092FF
:1052E000130101FB232611042324810423229104AA
:1052F00023202105232E3103232C4103232A51038C
:10530000232861032326710323248103232291038D
:105310002320A103232EB1010347C60013890600F1
:10532000138405009304050063020738032A8600EE
:105330006304043C1305000093000000B76500807F
:105340009385C5EE9306100013072000930700FC19
:10535000130800089308F00793025000130340005D
:1053600093033000130E00FE930900FF376F008097
:10537000930B0FEF376F0080130C8FEF376F0080A8
:10538000930C4FEF376F0080130D8FEE378F8080B7
:10539000930D0F086F008002232A6100232801006B
:1053A000930A010183DE4A00639C0E341305150045
:1053B000E308050093000F0063FE8038938F4000E0
:1053C000E3E01F00636EF405138F4000E364E40123
:1053D000338F1400834A1F00034B0F00834E2F00AE
:1053E000034F3F00939A8A00B3EA6A01939E0E012D
:1053F000131F8F01B36EDF01B3EE5E01B3FEBE017A
:1054000063900E02130F4500636CAF7A93800F0018
:10541000938F4F0013050F00E3F61FFA6F00407AD9
:10542000E3FC80F8338B1400830A0B00138F050014
:1054300063D60A0293FE0AFE138F0B006380FE02FE
:1054400093FE0AFF130F0C00638ACE0193FE8AFFBE
:10545000130F0D0063843E01138F0C00835E0F0059
:1054600063900E2A834E2F0093FF7E00338FF0014E
:1054700063681F74636EE42DE38ADFF26346F70707
:10548000638CDF12639CEF7693FE0AFE6398FE76D0
:1054900093FEFA01230701002316D101834F1B005D
:1054A00093FE0F0CE39A0EEF835EC100939A6E0099
:1054B000939E1E0193DEBE012307D10193FFFF03DC
:1054C000B3EAFA01939F0A0193DF0F01939E0E0145
:1054D000B3EFDF012316510163E2F81B232A5100C9
:1054E000232801006FF0DFEB63827F0E63986F70FB
:1054F00093FE8AFF63943E7193FE7A0023070100B6
:105500002316D101834F1B0093FE0F0CE3960EE987
:10551000835EC100939A6E00939E1E0193DEBE01CE
:105520002307D10193FEFF03B3EEDA012316D10165
:10553000834F2B0093FE0F0CE3900EE7835EC100B8
:10554000939A6E00939E1E0193DEBE012307D10144
:1055500093FEFF03B3EEDA012316D101834F3B0024
:1055600093FE0F0CE39A0EE3835EC100139B6E0063
:10557000939E1E0193DABE012307510193FEFF03A0
:10558000B36FDB012316F101E38A0AF4939F0F0145
:1055900093DE0F01939A0A01B3EF5E0193DA0F01D4
:1055A000930E100163EADA0F930E7000232AD101E3
:1055B000232801006FF0DFDE93FEFA0F231A0100AB
:1055C000230901002318D1016FF09FDD93FE0AFF2C
:1055D0006396CE6393FEFA00230701002316D101E0
:1055E000834F1B0093FE0F0C930A400063960E0737
:1055F000835EC10093906E00939E1E0193DEBE01F8
:105600002307D10193FEFF03B3EED0012316D1018E
:10561000834F2B0093FE0F0C63900E05835EC10039
:10562000939A6E00939E1E0193DEBE012307D10163
:1056300093FFFF03B3EFFA012316F101939F0F01CC
:1056400093DF0F01939E0E01B3EFDF01930A500029
:10565000930EF07F63E6FE01231A51016FF05FD4D1
:1056600093DEBF00930AB001639A5E01930E60005F
:10567000232AD101232801006FF09FD22314F101C6
:1056800093DE0F012305D1012318F1012309D10174
:10569000231A01006FF0DFD02314F101230551011B
:1056A0002318F101230951016FF09FFE630A044C96
:1056B0008329490003290900130A00006366445343
:1056C00033864401B30644411305010193050900E3
:1056D000E780090003254101931505016394054AFC
:1056E000032501013305AA00636C454D130A05002B
:1056F000E31685FC6F00C04863180A066F00404837
:1057000013050400636A440583294900032909003D
:10571000130A0000636A444D33864401B3064441D2
:105720001305010193050900E780090003254101E4
:105730009315050163980544032501013305AA006B
:1057400063604549130A0500E31685FC6F0040437A
:1057500013050400E37A45FB3305AA40B335AA00DC
:105760009385F5FF33FAA50037B5AAAA1305A5AAB4
:105770002322A100032506019315B50093D6B50099
:105780001307F0076368D700376700800327C7EE69
:105790006F0040041307F07F6368D700376700800D
:1057A000032707EF6F00000313D7B5016318070045
:1057B00037670080032787EF6F00C0019307100150
:1057C0006366F7001307B0006F00C0003767008002
:1057D000032787EE931707016386070E370501003D
:1057E0001305E5FF3375A7009305A0006312B542CA
:1057F00037650080130B054D930A300003454601C1
:10580000137535006308052C930510006302B5106D
:1058100093052000631EB53E638E0A0483290900A8
:10582000832B4900130C000013351A00330AAA0019
:10583000930C000063EA9A3B33069B01B3869A41BE
:105840001305010193850900E7800B000325410141
:105850009315050163980532032501013385AC00DA
:1058600063609537930C0500E31655FD130C1C007F
:10587000E3104CFD63060430832949000329090025
:10588000130A00006362443733864401B30644417F
:105890001305010193050900E78009000325410173
:1058A000931505016390052E83250101B305BA0008
:1058B00063E8453113050000138A0500E39485FC75
:1058C0006F00402C13570701937A7700130750009D
:1058D00063F6EA32130720006348571513071000D8
:1058E000638AEA1893062000639ADA3093D595010B
:1058F000639A05329355650093E5050C2302B100C8
:105900001375F50313050508A302A1006F00001B22
:10591000130C1A0063060C2A83290900832B490003
:10592000135A1A00630C0A04638A0A04930C0000D9
:10593000130D000063EAAA2B3306AB01B386AA411C
:105940001305010193850900E7800B000325410140
:105950009315050163980522032501013305AD0068
:105960006360A527130D0500E31655FD938C1C00FD
:10597000E3904CFD83290900832B49006304040450
:10598000130A00006362442733864401B30644418E
:105990001305010193850900E7800B0003254101F0
:1059A000931505016390051E032501013305AA0027
:1059B00063684521130A0500E31685FC8329090065
:1059C000832B490013352C0093B51A003365B500BD
:1059D0006318051A1304000093541C0013090000F7
:1059E00063E42A2133062B01B3862A411305010102
:1059F00093850900E7800B000325410193150501FC
:105A000063920518032501013305A900636A251B6C
:105A100013090500E31655FD1304140013050000D7
:105A2000E31E94FA6F00001693063000638CDA04CC
:105A3000930640006394DA1C93D5D5019385050F36
:105A40002302B1009315E50093D5A50193850508C0
:105A5000A302B1009315450193D5A50193850508CF
:105A60002303B1001375F50313050508A303A10073
:105A70006F00C0049305F00F63E6D51A2302A1005E
:105A80006F00C00393D665011307B001E382E6D629
:105A900063CA05189355C50093E5050E2302B100AE
:105AA0009315450193D5A50193850508A302B1007F
:105AB0001375F503130505082303A1001305500012
:105AC00063FAAA10130B4100034546011375350014
:105AD000E31C05D263040404832B490083290900D5
