:0200000480007A
:1000000097E20000938282FA17F30000130383FD46
:1000100063F862002380020093821200E3EC62FE28
:1000200017F10000130101FCEF10503D6F000000BC
:1000300003250500177300006700C3D303250500DF
:1000400017730000670003E203A6C501937606015B
:10005000639A060013760602631A060017A30000CF
:1000600067008387179300006700036717930000FA
:100070006700C36E130101FF13050008232601006A
:1000800063F8A5001305D1002306B1006F00000A34
:1000900013D5B500631205021305E10013D6650000
:1000A0001366060C2306C10093F5F5039385050836
:1000B000A306B1006F00800713D50501631A05027E
:1000C0001305F10013D6C5001366060E2306C10002
:1000D000139645011356A60113060608A306C10090
:1000E00093F5F503938505082307B1006F0000041D
:1000F0001305010113D625011366060F2306C1005F
:100100001396E5001356A60113060608A306C100C0
:10011000139645011356A601130606082307C100CE
:1001200093F5F50393850508A307B1001306C100F5
:10013000B705001083460600130716002380D5007C
:1001400013060700E318A7FE1305000013010101C1
:100150006780000037C600801306C6159386050029
:10016000930506001386060017830000670043D43A
:100170000325050017930000670003C5B7C600807C
:10018000938606011306500013850500938506002B
:1001900017930000670043AC130101FD23261102F1
:1001A000232481022322910223202103232E3101C3
:1001B000232C4101232A5101232861018326460073
:1001C00093840500130405006386060883298600CE
:1001D00063820908032A0600B7E50080938545FC81
:1001E0001305410013064000938604009710000099
:1001F000E78040C0032581006304050C0325C1008E
:10020000B7EA008083A50AFC03294100138B0AFC8E
:100210003385A50023A0AAFC1305090093050A0055
:100220001386090097A00000E78080E213054B00C9
:100230001306400093050A009386090097100000FA
:10024000E780C0D903A50AFC3305B54023A0AAFC6A
:100250006F0040066388040437E500800340E5FB37
:10026000B7E50080938545FC130541001306400067
:100270009386040097100000E780C0B70325810033
:10028000630605020325C100B7E5008003A605FC4F
:10029000032941003305A60023A0A5FC631C090027
:1002A0006F000002130940006F00C0001309000036
:1002B0006308000013050000232224016F000001E1
:1002C000130540002322A4001305100023249400EA
:1002D0002320A4008320C10203248102832441023D
:1002E000032901028329C101032A8101832A4101D3
:1002F000032B01011301010367800000130101FDBD
:100300002326110223248102232291022320210388
:100310009304050083260500138516001384050049
:100320006304050A6354D00013951600930540003A
:100330001309050063E4A500130940001355E50106
:100340006312050893152900370500801307C5FFC0
:1003500013050000636AB706638E060003A5440018
:1003600093962600232AA100232ED10013054000D6
:100370006F00800013050000232CA10013058100ED
:100380001306410197000000E78040E1032581004A
:10039000631405020325C10023A2A40023A02401A5
:1003A0008320C10203248102832441020329010224
:1003B00013010103678000000325C100032601012A
:1003C0006F0080001305000093050600130604006B
:1003D00097200000E78000F6130101FD232611029B
:1003E000232481022322910223202103232E310181
:1003F000232C41018329050013891900138405006A
:100400006302090C93040500635430011399190029
:100410001305400063642501130940001306C00062
:1004200013050900930500009306000097A0000043
:10043000E78080B963980508130A05003705008036
:100440001306C5FF13050000636A460963840902A9
:100450009305C0001385090097A00000E78040B213
:1004600083A544002326B100232AA10013054000E0
:100470006F008000130500002328A1001305010070
:100480001306C10093050A0097000000E78000D121
:1004900003250100631005040325410023A2A400E5
:1004A00023A024018320C10203248102832441026A
:1004B000032901028329C101032A810113010103D8
:1004C0006780000013050000130604009720000059
:1004D000E78040E6032541008325810013060400E0
:1004E00097200000E78000E5130101FE232E110094
:1004F0009382050093074500232CA10037C5008097
:10050000130585022324A100130581012322A100E4
:1005100013055000B7C5008093858503B7C60080DA
:100520009386260437C8008013088801B7C8008066
:100530009388680413066000130740002320A1007D
:100540001385020097800000E780C0738320C101FB
:100550001301010267800000034505001315250003
:1005600037C600801306862C3306A6000326060035
:10057000B7C60080938646303385A60083260500E3
:100580001385050093850600178300006700C36C80
:10059000630E06003705001083C60500938515001D
:1005A0001306F6FF2300D500E31806FE130500002E
:1005B00067800000130101FC232E1102232C81020D
:1005C000F325203463C6050A130405001306F00062
:1005D0001305E000636AB60037C5008013050509FE
:1005E0003305B50003450500A303A10073251034AE
:1005F0002328A102130501032320A10237950080BF
:100600001305456D2322A102130571002324A102C5
:1006100037050080130585552326A10237C50080C4
:100620001305851E2324A100130530002326A100F5
:10063000232C0100130501022328A100130520002B
:10064000232AA100B7C500809385C5151305410372
:100650001306810097800000E78080856314050AF7
:100660000325C40713054500232EA4066F00800848
:10067000370500109305D0062300B500930530061A
:100680002300B500930510062300B500930550071D
:100690002300B500130630072300C50013065006DB
:1006A0002300C5009306A0032300D5009306000293
:1006B0002300D500930690062300D5009306E0069C
:1006C0002300D500930640072300D5002300C50072
:1006D000130620072300C5002300C5002300B50032
:1006E000930500072300B5002300D5009305A00063
:1006F0002300B5008320C1030324810313010104F7
:100700006780000037C5008013054518B7C6008014
:100710009386461737C700801307071C9305B0025E
:100720001306410397700000E78080AF130101F7C3
:10073000232611082324810823229108232021093C
:10074000232E310737F900801309090023202103E4
:10075000130501022324A100B79900809389496DF4
:100760002326310137C5008013050528232CA1025B
:1007700013052000232EA102232401041305810068
:100780002320A104130510002322A104B7C5008073
:100790009385C5151305B1071306810397700000F3
:1007A000E78000716316051637E500808345C5FBB9
:1007B000638405006F00000093051000230EB5FA56
:1007C000370520003309A9009354C900138414008D
:1007D00023288102370508001305F53F232AA102CB
:1007E000130501032320A102232231031305410332
:1007F0002324A1022326310313052000232CA10268
:100800002320A104130600022324C104232601048B
:10081000930640002328D10413073000230AE10483
:10082000232CA1042320A1062324C1062326B106DC
:100830002328D106230AE106B7C5008093858523C6
:100840002324B1002326E10093058103232CB1006A
:10085000232EA100930501022328B100232AA10021
:10086000B7C500809385C5151305B1071306810030
:1008700097700000E780C063631C050837E53F8080
:100880001305F5FF6364250737E50080032605FBA4
:10089000B7E5008083A645FB1317C4002320C700DB
:1008A0002322D700130610002328C5FAB706080034
:1008B0009386D63F23AA85FA638AD4021397C4008D
:1008C000B72700003307F700B7170000130804002C
:1008D0002320C700232287002328C5FA130414000D
:1008E00023AA85FA3307F700E312D8FE37E5008024
:1008F000230E05FA8320C1080324810883244108BC
:10090000032901088329C107130101096780000039
:1009100037C5008013054518B7C600809386461773
:1009200037C700801307071C9305B0021306B107F1
:1009300097700000E780C08E130101FD2324A10001
:100940002326B100130581002324A102370500806E
:100950001305854E2326A10237C500801305052AFD
:100960002328A10013051000232AA100232001023F
:1009700093058102232CB100232EA100B7C500806E
:100980009385852B1305010197600000E780406285
:100990001306050013850500930506009700000067
:1009A000E780C0F997B200009382C265130101FD90
:1009B00023208100232291002324210123263101B9
:1009C00023284101232A5101232C6101232E710187
:1009D00023208103232291032324A1032326B1038F
:1009E00013000000130000001300000013000000BB
:1009F00013000000130000001300000013000000AB
:100A00001300000013000000130000000F00F00F9F
:100A100003A5020083A5020003A6020083A602002C
:100A200003A7020083A7020003A8020083A8020014
:100A300003A4020083A4020003A9020083A9020008
:100A400003AA020083AA020003AB020083AB0200E8
:100A500003AC020083AC020003AD020083AD0200D0
:100A600003A5020083A5020003A6020083A60200DC
:100A700003A7020083A7020003A8020083A80200C4
:100A800003A4020083A4020003A9020083A90200B8
:100A900003AA020083AA020003AB020083AB020098
:100AA00003AC020083AC020003AD020083AD020080
:100AB00003A5020083A5020003A6020083A602008C
:100AC00003A7020083A7020003A8020083A8020074
:100AD00003A4020083A4020003A9020083A9020068
:100AE00003AA020083AA020003AB020083AB020048
:100AF00003AC020083AC020003AD020083AD020030
:100B000003A5020083A5020003A6020083A602003B
:100B100003A7020083A7020003A8020083A8020023
:100B200003A4020083A4020003A9020083A9020017
:100B300003AA020083AA020003AB020083AB0200F7
:100B400003AC020083AC020003AD020083AD0200DF
:100B500003A5020083A5020003A6020083A60200EB
:100B600003A7020083A7020003A8020083A80200D3
:100B700003A4020083A4020003A9020083A90200C7
:100B800003AA020083AA020003AB020083AB0200A7
:100B900003AC020083AC020003AD020083AD02008F
:100BA00003A5020083A5020003A6020083A602009B
:100BB00003A7020083A7020003A8020083A8020083
:100BC00003A4020083A4020003A9020083A9020077
:100BD00003AA020083AA020003AB020083AB020057
:100BE00003AC020083AC020003AD020083AD02003F
:100BF0000F00F00F0324010083244100032981002A
:100C00008329C100032A0101832A4101032B8101A9
:100C1000832BC101032C0102832C4102032D81028D
:100C2000832DC1026780000000000000000000006A
:100C3000130141FC23203100232241002324110011
:100C40002326810023289100232A2101232C31010E
:100C5000232E410123205103232261032324710306
:100C60002326810323289103232AA103232CB103E4
:100C700073100534232025088322C507739012348E
:100C80008320050003214500832185000322C50040
:100C90008322050103234501832385010324C50124
:100CA00083240502832585020326C50283260503C6
:100CB00003274503832785030328C50383280504E9
:100CC0000329450483298504032AC504832A0505CD
:100CD000032B4505832B8505032CC505832C0506B1
:100CE000032D4506832D8506032EC506832E050795
:100CF000032F4507832F8507032545027300203006
:100D000073150534232015002322250023243500E4
:100D10002326450023285500232A6500232C75002F
:100D2000232E8500232095022324B5022326C50205
:100D30002328D502232AE502232CF502232E0503BE
:100D400023201505232225052324350523264505C3
:100D500023285505232A6505232C7505232E850593
:100D6000232095072322A5072324B5072326C5079B
:100D70002328D507232AE507232CF507F32200347F
:100D80002322550203210508F3221034232E550691
:100D90008321010003224100832081000324C1003C
:100DA000832401010329410183298101032AC1010F
:100DB000832A0102032B4102832B8102032CC102EF
:100DC000832C0103032D4103832D81031301C103F0
:100DD00067800000B7C60080938606341306B00013
:100DE0001385050093850600178300006700C3E69E
:100DF000130101FD232611022324810223229102E3
:100E000023202103232E31011307800093090600BC
:100E100013890500130405006364D700930680005E
:100E20009386360093F4C6FF13850400938509006A
:100E300097800000E780C02C93054000630A0510EE
:100E400003264900630606103305A04033753501BB
:100E500093D619003757555513075755B3F6E60083
:100E6000B386D9403737333313073733B3F7E60048
:100E700093D62600B3F6E600B386D70013D7460014
:100E8000B386E60037170F0F1307F7F0B3F6E60047
:100E900013978600B386E60013970601B386E60033
:100EA00013D786019387F9FF330830419308100068
:100EB0006F004001832646001309060013860600D2
:100EC0006388060883230600E3E693FE631A170D82
:100ED000338EC70033730E01930606006308C30008
:100EE000130E8E00B3760E01B382C640338F960088
:100EF000B30E7600E3E0EEFD338EEE41630E0E029C
:100F0000130F3F009373CFFF138F8300E3E4EEFBD7
:100F10002322090003274600232206006302C3069A
:100F200023A0C30123A2E30023205600232276003E
:100F30002322C9006F00C0052322090003274600B1
:100F400023220600631AC3022322E90063920604E7
:100F500093040000B305B40023A095008320C102D0
:100F60000324810283244102032901028329C10150
:100F7000130101036780000093030600138E020033
:100F800023A0C30123A2E30023227900E38206FC0D
:100F90002320D4002322A400930580006FF09FFB40
:100FA00037C50080130505382322A1001305100062
:100FB0002324A100232A0100130540002326A100B9
:100FC00023280100B7C500809385C53F1305410064
:100FD00097600000E780C0FD130101FA232E110481
:100FE000232C8104232A910423282105232631055B
:100FF00013078000130406001389050093090500F8
:101000006364D700930680009386360093F4C6FF8E
:10101000138504009305040097800000E780400ECC
:101020006306052683A54900232099002322090091
:101030006382050403A5C900637EB904B306990061
:1010400063E6D51603A689009307860013070900F7
:10105000637AF900B386C6402320D6002322060017
:101060001307060023A2E9002322B700130610008D
:101070006F00C00903A5890093058500637CB90C46
:10108000B3852401B385A5402320B50023220500A4
:101090006F00C00C03A6450023262101630206024F
:1010A000636CC90093050600032646002326210130
:1010B00063080600E378C9FEB3069900636CD6188E
:1010C0002328B10083A605003387D500232AD10049
:1010D000636AE91023A225012322C9001306200018
:1010E000138905006F0080028325070083264700CF
:1010F00023220700032709002322D900B305B700E4
:101100002320B9001306F6FF6300060803274900F1
:1011100083260900B305D900630C0700E386E5FCCC
:10112000130907001306F6FFE31206FE6F00C00561
:1011300063FCA504138635001376C6FF13068600EC
:101140006374C5043385A6003305B5402320A90088
:101150006F008003938504001305090003A6C900EE
:10116000B306B50063F0C602138736001377C7FFD6
:10117000130787006378E6003306D640B305B60050
:101180002320B50023A2A9001305040093850400C1
:101190008320C1050324810583244105032901051A
:1011A0008329C104130101066780000037C5008050
:1011B000130545482328A10213051000232AA10284
:1011C0002320010413054000232CA102232E010239
:1011D000B7C500809385C5481305010397600000DB
:1011E000E78000DD1305C1002328A1023705008038
:1011F00013050517232AA10293050101232CB1022F
:10120000232EA102130541012320A10437A500804C
:101210001305458D2322A10437C500801305054E13
:10122000232CA10013054000232EA100232401023A
:10123000130501032320A102130530002322A1027C
:10124000B7C50080938505501305810197600000A4
:10125000E78000D637C50080130545482328A10242
:1012600013051000232AA1022320010413054000C6
:10127000232CA102232E0102B7C500809385C54906
:101280001305010397600000E78080D237C5008016
:101290001305C541B7C600809386C64037C7008096
:1012A000130787449305B0021306B104976000004A
:1012B000E78000F7130101F6232E1108232C810883
:1012C000232A9108232821092326310923244109AF
:1012D0002322510923206109232E7107232C810722
:1012E000232A91072328A1072326B107130400000E
:1012F00023280100130C4000232A8101232C010024
:10130000232E010023208103232201022324010232
:101310002326810323280102232A010237CA0080E1
:10132000130ACA61B7CA0080938ACA6337CB0080A8
:10133000130BCB65930CA0006F0000020325410343
:10134000B705803F97900000E78080E1232AA10243
:1013500013040D00630C9D1D832B810103250101E6
:10136000639CAB0013050101B7C500809385C55D83
:1013700097F0FFFFE78080060325410193952B003E
:1013800013964B003306B6403305C50023200500F5
:101390002322850123240500832441020325C10162
:1013A000938B1B00232C7101639CA4001305C101C6
:1013B000B7C500809385C55E97F0FFFFE780000208
:1013C0000325010293952400139644003306B6408A
:1013D0003305C500232005002322850123240500B1
:1013E000832B01030325810293841400232291029D
:1013F000639CAB0013058102B7C500809385C55F70
:1014000097F0FFFFE78080FD8324C102130D1400D5
:101410009305C00013850B0097900000E78040B64D
:101420003385A40023200500232285012324050001
:10143000938B1B0023287103930DA0001315240028
:1014400093144400B384A4406F00400203A54B00F2
:10145000931529003305B500232035011309190020
:10146000938DFDFF23A42B01E38A0DEC83258101DD
:101470006374B464832B4101B38B9B0003A98B007D
:1014800003A50B00631AA90013850B0093050A003E
:1014900097F0FFFFE780C0E603A54B0093152900F6
:1014A0003305B500232005001309190023A42B01DF
:1014B00083254102637CB460832B0102B38B9B00C4
:1014C00003A98B0003A50B0083294103631AA9001C
:1014D00013850B0093850A0097F0FFFFE78040E239
:1014E00003A54B00931529003305B50023203501D2
:1014F0001309190023A42B01832501036372B45E31
:10150000832BC102B38B9B0003A98B0003A50B00A7
:1015100083294103E31CA9F213850B0093050B00FB
:1015200097F0FFFFE780C0DD6FF05FF21305410326
:10153000232AA1043795008013058567232CA10475
:1015400037C5008013058551232EA1021305200005
:101550002320A10423260104130541052322A1040D
:10156000130510002324A104B7C500809385C51579
:101570001305B1061306C10397700000E78040937E
:101580006312055C13040000130AA000930AB00064
:1015900093090000130514002326A1001305100071
:1015A0009315240013164400B30BB640130C00002F
:1015B00093040000138B090093090500930C40006D
:1015C000130D800013192B0083254102637AB44662
:1015D00003250102330575018325850063FCB446AC
:1015E0008325010363F2B4480326C102B305A601B3
:1015F00083A505006374BB480325450033069601A7
:10160000832506003305850103250500B3852501E3
:1016100083A5050097900000E7800059832581018C
:101620006378B4460326410133067601832586009C
:10163000637ABB4683254600B38D250183A50D0043
:101640009384140097900000E78080B123A0AD0040
:10165000938CCC00130DCD00130C4C00E39644F793
:1016600013851900E31455F50324C100E31244F374
:10167000032D41011305000003248101130D8D008A
:10168000930CA000B30594011306A0006384C54821
:1016900003260D00630C064893051000630AB64844
:1016A000930530006368B644930530006302B64882
:1016B000930550006364B64493055000630AB64630
:1016C000930570006360B644930570006302B646EC
:1016D00093059000636CB64293059000630AB6448C
:1016E000832DCDFF83A40D0203A9CD0183A98D0114
:1016F00003AA4D0183AA0D0103ABCD0083AB8D007E
:1017000003AC4D0083A50D0097900000E78040A535
:101710009305050013050C0097900000E78040A496
:101720009305050013850B0097900000E78040A308
:101730009305050013050B0097900000E78040A279
:101740009305050013850A0097900000E78040A1EB
:101750009305050013050A0097900000E78040A05C
:10176000930505001385090097900000E780409FCE
:10177000930505001305090097900000E780409E3F
:10178000930505001385040097900000E780409DB5
:1017900083A54D0213060500138505009305060079
:1017A00097900000E780C09B232CA102938CFCFF44
:1017B000130DCD00E3980CEC375500001305A5F18F
:1017C0002322A10613058103232AA1043795008053
:1017D00013058567232CA10413054106232EA104BC
:1017E00037A500801305458D2320A10637C500804D
:1017F00013058553232EA102130530002320A104D5
:1018000023260104130541052322A104130520000A
:101810002324A104B7C500809385C5151305B1061F
:101820001306C10397600000E7808068631C0530E1
:1018300083240103638C04040329C10213094900B2
:10184000B7E90080138409FC130444006F00000111
:101850009384F4FF1309C900638A04028326C9FF35
:10186000E38806FE832509009396260013064000B0
:101870001305040097F0FFFFE780407603A509FCFD
:101880003305B54023A0A9FC6FF09FFC032581021E
:10189000630E05029305C00097800000E780406E4C
:1018A0008325C1029306050037E40080130504FC7C
:1018B000130545001306400097F0FFFFE780007214
:1018C000032504FC3305B5402320A4FC83244102F6
:1018D000638C04040329010213094900B7E900805D
:1018E000138409FC130444006F0000019384F4FF87
:1018F0001309C900638A04028326C9FFE38806FE30
:101900008325090093962600130640001305040062
:1019100097F0FFFFE780806C03A509FC3305B54015
:1019200023A0A9FC6FF09FFC0325C101630E0502F3
:101930009305C00097800000E78080648325010242
:101940009306050037E40080130504FC13054500E9
:101950001306400097F0FFFFE7804068032504FC72
:101960003305B5402320A4FC83248101638C040447
:101970000329410113094900B7E90080138409FCD8
:10198000130444006F0000019384F4FF1309C9009D
:10199000638A04028326C9FFE38806FE83250900C3
:1019A00093962600130640001305040097F0FFFFEE
:1019B000E780C06203A509FC3305B54023A0A9FC5C
:1019C0006FF09FFC03250101630E05029305C00023
:1019D00097800000E780C05A8325410193060500E7
:1019E00037E40080130504FC13054500130640008E
:1019F00097F0FFFFE780805E032504FC3305B540C8
:101A00002320A4FC8320C1090324810983244109E4
:101A1000032901098329C108032A8108832A41086F
:101A2000032B0108832BC107032C8107832C41075B
:101A3000032D0107832DC1061301010A67800000F1
:101A400037C600801306C6571305040097500000E0
:101A5000E780405D37C600801306C6581385040032
:101A600097500000E780005C37C600801306C65917
:101A70001385040097500000E780C05A37C60080E5
:101A80001306C65A13050B0097500000E7808059D3
:101A900037C600801306C65B13050400975000008C
:101AA000E780405837C600801306C65C13050B005C
:101AB00097500000E780005737C600801306C660C5
:101AC0001305040097500000E780C05537C600801A
:101AD0001306C6621305040097500000E780805487
:101AE00037C600801306C664130504009750000033
:101AF000E7804053930520006F008003930540006A
:101B00006F000003930560006F0080029305800062
:101B10006F00000237C600801306C6551305040087
:101B20009305040097500000E780C04F9305000024
:101B300037C600801306C65613850500975000006F
:101B4000E780404E37C5008013054518B7C60080B2
:101B50009386461737C700801307071C9305B0020A
:101B60001306B10697500000E780806B130101FD5A
:101B7000232611022322A100130541002320A102E4
:101B8000370500801305C5032322A10237C5008055
:101B9000130545682324A100130520002326A10076
:101BA000232C0100130501022328A10013051000B6
:101BB000232AA100B7C500809385C5151305B1027E
:101BC0001306810097600000E780802E63140500F3
:101BD0006F00000037C5008013054518B7C60080A8
:101BE0009386461737C700801307071C9305B0027A
:101BF0001306B10297500000E7808062130101F2E2
:101C0000232E110C232C810C232A910C2328210D27
:101C10002326310D2324410D2322510D2320610D54
:101C2000232E710B232C810B232A910B2328A10B2C
:101C30002326B10B37040010930530072300B400AE
:101C400013094007230024019309100623003401DF
:101C5000130520072300A4001306200723002401F6
:101C6000130A500623004401130540062300A40074
:101C7000130510022300A400930AA00023005401BE
:101C8000130540042300A4001305F0042300A4005E
:101C9000930CF006230094012300A4001305D00444
:101CA0002300A400930D00022300B401230094013B
:101CB0002300B40023005401130D90062300A40157
:101CC000130CE006230084012300A4012300240157
:101CD0002300B4019304000723009400230034017F
:101CE000930B700623007401230044012300B40108
:101CF00023003401130BC006230064012300640198
:101D000023009401130530062300A40023003401AE
:101D100023002401230094012300C4002300540164
:101D200097F0FFFFE780C0A0230094002300340158
:101D30002300740113053007230044012300B4017C
:101D40002300340123006401230064012300940173
:101D5000130630062300C4002300340123002401AD
:101D600023009401930520072300B4002300B4014D
:101D70002300A401230084012300A40123002401E3
:101D80002300A40123003401230064012300A401E3
:101D90002300A40023004401130540062300A400EF
:101DA000130510022300A400230054012300A40102
:101DB000230084012300A401230024012300B40193
:101DC0001305B0062300A400230044012300B4003F
:101DD00023008401130C2007230044012300640125
:101DE0002300B401230034012300640123006401B3
:101DF00023009401930B30062300C4002300340118
:101E000023002401230094012300840123005401B2
:101E1000B7F40080938404002320910A1305010A7B
:101E20002324A10837050080130505172326A108E0
:101E300037C50080130545212322A100130520008A
:101E40002324A100232A0100130581082326A100D1
:101E5000130510002328A100B7C500809385C51580
:101E60001305810A1306410097600000E7804004D3
:101E70006310052C37E50080232005FC130505FCC5
:101E80009385340093F5C5FF370620003386C400E0
:101E90003306B640B70640009386C6FFB376D60039
:101EA00023A0D50023A20500B386D5001376360003
:101EB000232205002324B5002326B5002328D500BE
:101EC000230AC5001305B0062300A400930550069D
:101ED0002300B400230084011305E0062300A400BE
:101EE0002300B400230064012300B4012300340163
:101EF0002300640123006401230094012300740182
:101F000023003401230024012300940123008401D1
:101F10002300B4012300A4012300A4002300A40192
:101F2000230024012300A4012300340123006401C1
:101F30002300A401130530072300A4002300B400EC
:101F4000130540062300A400130510022300A4007B
:101F50001305A0002300A40097F0FFFFE780C0A4B2
:101F600097F0FFFFE78040A40F00F00F97F0FFFF0E
:101F7000E78080340F00F00F230004003715008045
:101F8000130505D0731055307325003093053000CC
:101F90009395B5003365B50073100530130500083F
:101FA0007320053037E500808345C5FB6384050059
:101FB0006F000000B7E5008003A685FBB7E6008050
:101FC00083A606FB13071000230EE5FA130616007E
:101FD00023ACC5FA6382061837E50080032445FB6D
:101FE0001314C400630E04120325040063080500E3
:101FF00003254400930510006F0080009305000046
:1020000037E600802328B6FAB7E5008023AAA5FAB0
:1020100037E50080230E05FA9304010813054100FB
:102020001306C0079305000097900000E78000EBBF
:10203000372500801305C5162320A1082322010897
:102040002320910A379500801305456D2322A10AAC
:1020500037C500801305056B2324A1081305200054
:102060002326A108232C01081305010A2328A1080F
:1020700013051000232AA108B7C500809385C51554
:102080001305810A1306810897600000E78040E28B
:102090006310050A37150000130585FF3365A4009A
:1020A0002324A10037050010930580042300B50008
:1020B000930550062300B5009305C0062300B50024
:1020C0002300B5001306F0062300C50093060002A6
:1020D0002300D500930670072300D5002300C50018
:1020E000130620072300C5002300B5009305400612
:1020F0002300B500930510022300B5009305A0004E
:102100002300B5001305410097F0FFFFE78080B280
:102110001305410097E0FFFFE780004A6FF09FFE44
:1021200037C500801305052697500000E78000D1D1
:1021300037C5008013054518B7C60080938646173B
:1021400037C700801307071C9305B0021306810AE6
:1021500097500000E780C00C230E05FA37C50080B9
:102160001305456997500000E78040CD130101F940
:1021700023261106232481062322910623202107EA
:10218000232E3105232C4105232A510523286105DF
:102190002326710523248105232291052320A105EF
:1021A000232EB103B704001093095006130AC0068A
:1021B000130C3007130D1002B7AA0080938A4A8DC2
:1021C000130BC100B7CB0080938B0B6D930C3000C9
:1021D000930D81021309200037C400801304C41535
:1021E000130580042380A40023803401238044014C
:1021F000238044011305F0062380A4001305000288
:102200002380A400130550072380A40023808401A9
:1022100023803401130520072380A4002380840138
:102220002380A4012380A4012380A4011305A0001E
:102230002380A400732500B03305A0402324A1000F
:10224000732520B03305A0402326A10097F0FFFF9F
:10225000E7808006732500B0832581003385A500C3
:102260002324A100732520B08325C1003385A50058
:102270002326A100130581002324A1022326510354
:1022800023286103232A510323287101232A910162
:1022900023200102232CB101232E21011305B103B8
:1022A000130601019305040097600000E78040C019
:1022B00063160500730000006FF09FF237C50080C1
:1022C00013054518B7C600809386461737C70080A8
:1022D0001307071C9305B0021306B10397500000C3
:1022E000E78000F417E3FFFF6700C36A130101FEF4
:1022F000232E1100232C81001304010293050500F5
:1023000037C500801305C56F2320A4FE13051000F8
:102310002322A4FE232804FE130540002324A4FE48
:10232000232604FE130504FE97500000E78040C8F2
:10233000130101FF2326110023248100130401014E
:10234000631805001305060097000000E78040FAB7
:1023500097000000E7808000130101FF2326110091
:1023600023248100130401011306050013850500D1
:102370009305060097000000E78000F7130101F0C5
:10238000232E110E232C810E232A910E2328210F98
:102390002326310F2324410F2322510F2320610FC5
:1023A000232E710D232C810D232A910D2328A10D9D
:1023B0002326B10D1304011013068000138D0500B0
:1023C000930C050063F6C50883A90C0A1305900257
:1023D000E3F2A952638A090613152D00B7D50080D0
:1023E000938585113385A50003290500130A000094
:1023F000939A2900B3845C01138B0C0003250B0016
:10240000930B4B0093050000130609009306000090
:1024100097800000E78040BB33064501333AA600B1
:10242000338A4501938ACAFF2320CB00138B0B000C
:10243000E3960AFC630A0A0013058002E384A94EAE
:1024400023A044019389190023A03C0B6F00904600
:1024500013757D006306050883A90C0A9305900295
:10246000E3FAB948638C09069315250037D6008036
:1024700013068611B305B60083A50500930400007A
:1024800033DAA500939A290033895C01138B0C0081
:1024900003250B00930B4B009305000013060A0065
:1024A0009306000097800000E78000B23306950095
:1024B000B334A600B3849500938ACAFF2320CB00CF
:1024C000138B0B00E3960AFC638A04001305800259
:1024D000E38AA944232099009389190023A03C0B87
:1024E00013758D00630E050683A90C0A130590026F
:1024F000E3F2A9406384090613090000939A2900B6
:10250000B3845C0137F50500130A155E138B0C00CC
:1025100003250B00930B4B009305000013060A00E4
:102520009306000097800000E78000AA330625018B
:102530003339A60033892501938ACAFF2320CB00B3
:10254000138B0B00E3960AFC630A09001305800253
:10255000E38AA93C23A024019389190023A03C0B02
:1025600013750D01232294F32324A4F363080516A5
:102570001305C4F21306000A130CC4F293050000FD
:1025800097900000E780809503A70C0A13052000B0
:102590006376A710130D000093090000131727009E
:1025A000B38BEC00930580023775F286130A15FC95
:1025B000938D0C00930AFDFF93142D00B3049C002F
:1025C00013850D00032D84F2630E750F032B050098
:1025D000930D4500938A1A009384440013850D00DF
:1025E000E3040BFEE3FEBA3403A9C4FF138D1A0003
:1025F00013050B009305000013060A009306000064
:1026000097800000E780409C3306250123AEC4FE7E
:1026100093067002E3E4A63303A904003335A60051
:10262000B38CA5001306300213050B0093050000C0
:102630009306000097800000E780009933892C0101
:1026400033369901B306A90033B52601B305B600A8
:102650003385A50023A0D40063040502832C44F233
:102660009305800213066002E3F2CA3423A2A40099
:102670001305300033055501E36E35F36F0080011B
:1026800013052000832C44F2930580023305550185
:10269000E36235F3930905006FF0DFF11305900253
:1026A000E376A726B7C500809385C5791305C4F2E4
:1026B0001306200093860C0097700000E78080C905
:1026C000930905009305C4F21306000A13850C0054
:1026D00097800000E780C09723A03C0B13750D0284
:1026E000630A051C1305C4F21306000A93050000D3
:1026F00097800000E780807E03A70C0A1305300056
:102700006376A716930D0000130900001317270026
:10271000B384EC00930A04F39305800237F5AC858B
:10272000130615F837456D2D1305B5152320A4F2B2
:10273000138D0C00938BFDFF139C2D00338C8A01AD
:1027400013050D00630A9514032B0500130D4500B6
:10275000938B1B00130C4C0013050D00E3040BFEC0
:10276000E3FCBB1E232E24F103298CFF938D1B0059
:1027700013050B0093050000930906009306000063
:1027800097800000E780408433062501930C800287
:10279000232CCCFEE3F49D1D032ACCFF3339A60085
:1027A0003389250113050B0093050000032604F26D
:1027B0009306000097800000E780008133064901FE
:1027C0003305A600232EACFE93065002E3E87619EB
:1027D000B336260103290C003335C500B385B60096
:1027E000338AA5001306E04E13050B009305000085
:1027F0009306000097700000E780007D33092A01EE
:1028000033364901B306A90033B52601B305B60036
:102810003385A5002320DC0063080502832C44F2E5
:10282000930580020329C4F193065002E38CDB1860
:10283000138609002322AC001305400033057501FF
:10284000E36A25EF6F00000213053000832C44F289
:1028500093058002138609000329C4F1330575012D
:10286000E36A25ED130905006FF0DFEC1305900214
:10287000E37EA708B7C500809385457A1305C4F2A7
:102880001306300093860C0097700000E78080AC40
:10289000130905006F008000032D84F29305C4F234
:1028A0001306000A13850C0097700000E780407A39
:1028B00023A02C0B13750D04630005281305C4F227
:1028C0001306000A9305000097800000E78000616E
:1028D00003A70C0A13055000637CA720130A00000D
:1028E0001309000013172700B38DEC00930644F37F
:1028F0009305800237256ABF130615F037F5386E49
:10290000130545D62320A4F23795A7DA1305D57E03
:10291000232EA4F0370540E99309459F3755180049
:10292000930435F0138C0C00930AFAFF131A2A0053
:10293000B38B460113050C006302B51F832C050001
:10294000130C4500938A1A00938B4B0013050C005F
:10295000E3840CFE232C94F0232A24F1E3FCBA0038
:10296000138B090003A94BFF138A1A0013850C006F
:10297000930500002328C4F0930600009770000020
:10298000E7808064330625019304800223AACBFEEE
:1029900063749A7E03AD8BFF3339A600338925011A
:1029A00013850C0093050000032604F29306000033
:1029B00097700000E78040613306A9013305A60047
:1029C00023ACABFE9309500263E8597BB336260172
:1029D00003ADCBFF3339C500B385B600338925017C
:1029E00013850C00930500000326C4F19306000034
:1029F00097700000E780405D3306A9013305A6000B
:102A000023AEABFE638A3A77B336260103AD0B00E3
:102A10003339C500B385B6003389250113850C0011
:102A20009305000093090B0013060B0093060000AA
:102A300097700000E78040593306A9013305A600CE
:102A400023A0AB009306300263E85673B336260129
:102A500003A94B003335C500B385B600338BA50001
:102A600013850C0093050000832484F11386040071
:102A70009306000097700000E780005533092B0192
:102A800033366901B306A90033B52601B305B60094
:102A90003385A50023A2DB00032D84F26308050221
:102AA000930644F393058002032604F113073002D2
:102AB0006386EA7223A4AB0013056000032944F186
:102AC00033055501E36225E76F000002130550004E
:102AD000930644F393058002032604F1032944F18D
:102AE00033055501E36225E5130905006FF0DFE3C7
:102AF00013059002637CA760B7C500809385057BB2
:102B00001305C4F21306500093860C009770000062
:102B1000E7804084130905006F008000832C44F295
:102B20009305C4F21306000A13850C009770000089
:102B3000E780005223A02C0B13750D08630E053C93
:102B40001305C4F21306000A9305000097800000E5
:102B5000E780C03803A70C0A1305A000637EA736E0
:102B6000938D0C00930C000013090000131727002D
:102B7000B384ED009306C4F3930580023745952E88
:102B8000130615E037A5DF03130595902320A4F263
:102B90003745150F1305D58F232EA4F037E5742381
:102BA0009309F54237F5CFD31305C55E232CA4F066
:102BB00037E504C4130585C0232AA4F037B5CDBC7E
:102BC0001305A50D2328A4F0378533A6130595F129
:102BD0002326A4F037251FE9130535602324A4F02C
:102BE000138BFCFF939B2C00B38B760113850D0098
:102BF000832C44F263069530832A0500930D45002B
:102C0000130B1B00938B4B0013850D00E3840AFE0E
:102C1000232224F1637EBB56138C090003A9CBFE4B
:102C2000930C1B0013850A00930500002320C4F0B9
:102C30009306000097700000E780003933062501F5
:102C4000130A800223A6CBFE63F64C5503AD0BFF9F
:102C50003339A6003389250113850A009305000046
:102C6000032604F29306000097700000E780C03549
:102C70003306A9013305A60023A8ABFE9309500231
:102C800063EA6951B336260103AD4BFF3339C50002
:102C9000B385B6003389250113850A00930500002A
:102CA0000326C4F19306000097700000E780C0314E
:102CB0003306A9013305A60023AAABFE630C3B4DE6
:102CC000B336260103AD8BFF3339C500B385B6009B
:102CD0003389250113850A009305000093090C0030
:102CE00013060C009306000097700000E780C02DCB
:102CF0003306A9013305A60023ACABFE130C30024A
:102D0000636A6C49B336260103ADCBFF3339C50086
:102D1000B385B6003389250113850A0093050000A9
:102D2000032684F19306000097700000E780C02915
:102D30003306A9013305A60023AEABFE630C8B4519
:102D4000B336260103AD0B003339C500B385B60099
:102D50003389250113850A0093050000032644F1F9
:102D60009306000097700000E78000263306A90153
:102D70003305A60023A0AB00130C1002636C6C415A
:102D8000B336260103AD4B003339C500B385B60019
:102D90003389250113850A0093050000032604F1F9
:102DA0009306000097700000E78000223306A90117
:102DB0003305A60023A2AB00630E8B3DB33626017C
:102DC00003AD8B003339C500B385B60033892501C7
:102DD00013850A00930500000326C4F09306000043
:102DE00097700000E780401E3306A9013305A60056
:102DF00023A4AB00130CF001636E6C39B3362601CB
:102E000003ADCB003339C500B385B6003389250146
:102E100013850A0093050000032684F09306000042
:102E200097700000E780401A3306A9013305A60019
:102E300023A6AB0063008B37B336260103A90B0131
:102E40003335C500B385B600338CA5001306E024E6
:102E500013850A0093050000930600009770000098
:102E6000E780801633092C0133368901B306A900A7
:102E700033B52601B305B6003385A50023A8DB00D2
:102E8000032D84F2630805029306C4F393058002C0
:102E9000032604F0032944F01307E001637CEB34BC
:102EA00023AAAB001305B00033056501E36A25D3FF
:102EB0006F0000021305A0009306C4F3930580027F
:102EC000032604F0032944F033056501E36A25D1A4
:102ED000130905006FF0DFD0130590026378A72275
:102EE000B7C500809385457C1305C4F21306A00086
:102EF00093860C0097600000E780C0451309050029
:102F00009305C4F21306000A13850C0097700000A5
:102F1000E780001423A02C0B13750D106304051813
:102F20001305C4F21306000A9304C4F293050000CB
:102F300097800000E78080FA03A70C0A1305300190
:102F4000637EA710130C000013090000131727005D
:102F50003387EC00930B84F237C600801306C67EDD
:102F6000138D0C00930DFCFF13152C00B38BAB00DD
:102F70003385A40093050D006388E510130A0C0047
:102F800093040500138D450083AA0500938D1D0051
:102F9000938B4B00130C1C001305450093050D008B
:102FA000E38C0AFC232EE4F0232024F39309000091
:102FB000138C1D001309C004930C06001305800236
:102FC000637AAA1C03A50C0003AB04009305000060
:102FD00013860A009306000097700000E780C0FE89
:102FE000B3093B0133B669013385A900B339350113
:102FF000B305B600B389350123A0A400130A1A0053
:10300000938444001309C9FF938C4C00E31809FA18
:10301000638E0900832C44F21305500163F8AD1E42
:1030200023A63B05130540016F00C00013053001C6
:10303000832C44F29304C4F20327C4F1930B84F26B
:103040003305B501032904F237C600801306C67E96
:10305000E36A25F1130905006FF0DFF01305900214
:103060006376A70AB7C500809385C57E1305C4F2B1
:103070001306300193860C0097600000E780802DD6
:10308000130905006F008000032D84F29305C4F23C
:103090001306000A13850C0097700000E78040FBC0
:1030A00023A02C0B13850C0093050D0097600000E6
:1030B000E780000A13850C008320C10F0324810FD1
:1030C0008324410F0329010F8329C10E032A810E96
:1030D000832A410E032B010E832BC10D032C810D7E
:1030E000832C410D032D010D832DC10C1301011003
:1030F0006780000037D600801306464E9305800295
:103100001385090097600000E78080DA37D60080D9
:103110001306464E930580021305070097600000D2
:10312000E78000D937D600801306464E130580028B
:103130009305800297400000E780C0EE930A80026A
:1031400037D600801306464E9305800213850A0089
:1031500097400000E78000ED938C0B0037D600808D
:103160001306464E9305800213850C00974000001D
:10317000E78040EB93840A0037D600801306464E62
:10318000930580021385040097400000E78080E9E2
:10319000130A0B0037D600801306464E93058002B3
:1031A00013050A0097400000E780C0E713852A0056
:1031B00037D600801306464E9305800297400000E4
:1031C000E78040E613853B0037D600801306464E65
:1031D0009305800297400000E780C0E413855A0001
:1031E00037D600801306464E9305800297400000B4
:1031F000E78040E31305AB0037D600801306464E48
:103200009305800297400000E780C0E113853D01EF
:1032100037D600801306464E930580029740000083
:10322000E78040E0130101A8232E1156232C81567C
:10323000232A9156232821572326315723244157E7
:103240002322515723206157232E7155232C81555A
:10325000232A91552328A1552326B155130401583B
:1032600083AB450003AB050033677B01E302076EC8
:103270002326C4A883AAC50083A9850033E6590183
:10328000E306066E03A9450183A4050133E6240184
:10329000E30C066E938C060033069B00B336660182
:1032A000B3872B013387D70063047701B3367701E7
:1032B000E39C067463865B01B3B65B016F0080001C
:1032C000B3363B01E390067693060001E3FC966D6E
:1032D0002322A4A8039A8501B33666013385D7005B
:1032E00093361600B307D540375555551307555536
:1032F000373533339306353337150F0F1305F5F094
:10330000639C07061306F6FF935716003366F60014
:10331000935726003366F600935746003366F6004F
:10332000935786003366F600935706013366F6001E
:103330001346F6FF9357160033F7E7003306E640CF
:103340003377D600135626003376D6003306C700EF
:10335000935646003306D6003375A6001316850033
:103360003305C500131605013305C5001355850146
:10337000130605026F00C00613D6170033E6C70018
:10338000935726003366F600935746003366F600DF
:10339000935786003366F600935706013366F600AE
:1033A0001346F6FF9357160033F7E7003306E6405F
:1033B0003377D600135626003376D6003306C7007F
:1033C000935646003306D6003375A60013168500C3
:1033D0003305C500131605013305C50013568501D5
:1033E0000385A501232EA4A89355FA413305CA40AD
:1033F0003336CA00B385C5403756104D130626D460
:103400009306000097700000E78000BC3756134415
:10341000130606083306C5003335A6003385A5001C
:10342000130C350113150C01135505412324A4A8D1
:1034300013B51B009305F5FFB3F57501930B200041
:103440003385AB402324A4B4232464AB2326B4AA3D
:10345000130504AB13068009930500009780000054
:10346000E780C0A713B51A009305F5FFB3F5550122
:103470003385AB402326A4BE232634B52328B4B419
:10348000130544B5130680099305000097800000DA
:10349000E780C0A4133519009305F5FFB3F52501A6
:1034A0003385AB402328A4C8232894BE232AB4BE66
:1034B000130584BF13068009930500009780000060
:1034C000E780C0A1130584C91306C0099305000055
:1034D00097800000E78080A013051000232AA4D263
:1034E000232AA4C863460A04130584AA93050A0084
:1034F00097600000E780C0C51305C4B493050A00B7
:1035000097600000E780C0C4130504BF93050A005C
:1035100097600000E780C0C3032584A8634A0502C2
:1035200093151C0193D51501130544C96F0080053F
:10353000330540411315050193550541130544C951
:1035400097600000E780C0C0032584A8E35A05FC0B
:103550003305A04013150501135A0501130584AA6C
:1035600093050A0097F0FFFFE78080E11305C4B4DC
:1035700093050A0097F0FFFFE78080E0130504BF82
:1035800093050A0097F0FFFFE78080DF832984B46A
:10359000130544F2930584AA1306000A97700000ED
:1035A000E78000AB832404C9232234FD138509007E
:1035B00063E434011385040093058002E3EAA53235
:1035C0006306050613060000930504BF930644F244
:1035D0001307050083A7060003A805003388070129
:1035E000B337F80013761600B308C80033B60801E5
:1035F00033E6C70023A01601938545001307F7FFA4
:1036000093864600E31807FC6302060293058002D6
:10361000E304B53C93152500130644F2B305B60048
:103620001306100023A0C50013051500032944D379
:103630002322A4FC93060900636425019306050078
:1036400013059002E3F0A62C939626003305D04094
:103650001386C6FF930544F2B385C500930644C99B
:103660003386C600630405048326060003A705000D
:10367000B3B7E600B346D700B336D0003307F04007
:10368000B366D700130545009385C5FF1306C6FF33
:10369000E38A06FC0325C4A963D2A602032584A8F5
:1036A000130515002324A4A86F00C0149336150039
:1036B0009386F6FF0325C4A9E3C2A6FE638009062C
:1036C000130A0000139B2900930B84AAB38A6B0191
:1036D00003A50B00138C4B001306A00093050000FC
:1036E0009306000097700000E780008E33064501C6
:1036F000333AA600338A4501130BCBFF23A0CB003E
:10370000930B0C00E3160BFC630A0A0013058002FE
:10371000E384A92C23A04A0193891900032AC4BE7B
:1037200013059002232434B5E37CAA2863000A061B
:1037300093090000131B2A00930BC4B4B38A6B01D6
:1037400003A50B00138C4B001306A000930500008B
:103750009306000097700000E7800087330635016C
:10376000B339A600B3893501130BCBFF23A0CB00DF
:10377000930B0C00E3160BFC638A0900130580020F
:10378000E30CAA2423A03A01130A1A00232644BFFB
:103790006380040693090000939A2400130B04BF6E
:1037A000330A5B0103250B00930B4B001306A000AB
:1037B000930500009306000097700000E780C0802A
:1037C00033063501B339A600B3893501938ACAFFA0
:1037D0002320CB00138B0B00E3960AFC638A0900BD
:1037E00013058002E38AA41E23203A019384140067
:1037F000232894C8130584D3930544C91306000AEB
:1038000097700000E780C084232C24DD130584D347
:103810009305100097600000E7808093832444D3D1
:103820001305C4DD930544C91306000A9770000010
:10383000E7800082232E94E61305C4DD9305200063
:1038400097600000E780C090832444D3130504E808
:10385000930544C91306000A97600000E780407F83
:10386000232094F2130504E89305300097600000CC
:10387000E780008E832504F2832A84B413850A002E
:103880002328B4A863E45501032504A99305800205
:103890008324C4A9E3EEA504130B00008325C4E729
:1038A000232CB4A8832584DD232AB4A8832544D3FC
:1038B0002322B4AA130944AA93031000130E900202
:1038C0006F00C001930C0C0093058002930310005D
:1038D000130E9002032B04AAE3ECA5009316250017
:1038E000B305D0401306C4E73306D600B306D900AB
:1038F000638E050803A70600832706003338F70008
:1039000033C7E7003337E000B307004133E7E70090
:10391000938545001306C6FF9386C6FFE30A07FC9E
:1039200063ECE3066308050413061000930504E83E
:10393000930684AA1307050083A7050003A80600C1
:1039400093C7F7FFB307F80033B8070113761600E3
:10395000B388C70033B6F8003366C80023A0160149
:10396000938545001307F7FF93864600E31607FC8F
:103970006306067A2324A4B4930580009306050009
:10398000032684A96374A6026F00800213B7150092
:103990001307F7FFE3F8E3F89305000013850A0027
:1039A00093060500032684A963645601832684A92F
:1039B00063FAC675939726003306F040130784DD3B
:1039C0003307F700B307F900630E060803A80700E2
:1039D00083280700B332180133C8080133380001C7
:1039E000B308504033E80801130646001307C7FF29
:1039F0009387C7FFE30A08FC63EC030763880604A8
:103A0000130610001305C4DD130784AA938706006C
:103A100003280500832807001348F8FF33880801AE
:103A2000B338180113761600B302C80033B602018A
:103A300033E6C80023205700130545009387F7FF9E
:103A400013074700E39607FC630A066C2324D4B4EB
:103A500093E5450013850600032644A96370D6024A
:103A60006F000002133816001308F8FFE3F803F99B
:103A700093060500032644A96364A600032544A910
:103A80006378C567931725003306F040130744D3C6
:103A90003307F700B307F900630E060803A8070011
:103AA00083280700B332180133C8080133380001F6
:103AB000B308504033E80801130646001307C7FF58
:103AC0009387C7FFE30A08FC63EC03076308050458
:103AD00093061000130684D3130784AA93070500E6
:103AE00003280600832807001348F8FF33880801DD
:103AF000B338180193F61600B302D800B3B602012A
:103B0000B3E6D80023205700130646009387F7FF3B
:103B100013074700E39607FC638206602324A4B4DE
:103B200093852500930A0500032644AA6372A60222
:103B30006F004002133816001308F8FFE3F803F98A
:103B400013850600930A0500032644AA6364D60081
:103B5000832A44AA63F2CA5F13972A003306E0401F
:103B6000930604C9B386E6003307E9006308060834
:103B70008327070003A80600B3B80701B347F8007E
:103B8000B337F00033081041B367F800130646005E
:103B90009386C6FF1307C7FFE38A07FC63E6F306B5
:103BA00063880A0413061000130544C9930684AA07
:103BB00013870A008327050003A8060093C7F7FFB1
:103BC000B307F80033B8070113761600B388C700AF
:103BD00033B6F8003366C80023A01601130545006C
:103BE0001307F7FF93864600E31607FC63080652A7
:103BF000232454B5938515006F00400193371600B8
:103C00009387F7FFE3FEF3F8930A050063029B5FD7
:103C1000832DC4BE13850503032AC4A8330A6A0191
:103C20002300AA0013850A0063E45D0113850D00DB
:103C30006370C54D13081B00131625003305C040E3
:103C4000930584B4B385C5003306C900630A050231
:103C50008326060003A70500B3B7E600B346D700E6
:103C6000B336D0003307F040336DD700130545005D
:103C70009385C5FF1306C6FFE30A0DFC6F00C00065
:103C8000133D1500130DFDFF232004AB930B900291
:103C900093091000138C0C00130544F2930584AAB9
:103CA0001306000A97600000E780803A832C04C95D
:103CB000232254FD13850A0063E45C0113850C0084
:103CC0009305800263E6A54263040506130600001F
:103CD000930504BF930644F21307050083A706006B
:103CE00003A8050033880701B337F80013761600E0
:103CF000B308C80033B6080133E6C70023A0160195
:103D0000938545001307F7FF93864600E31807FCE9
:103D100063000602930580026300B54C93152500ED
:103D2000130644F2B305B60023A0350113051500B0
:103D30002322A4FC832544AA938605006364B5006E
:103D40009306050063F0763D139626003305C040C8
:103D5000930504F2B385C500930604C93386C600F3
:103D6000630C05028326060003A70500B3B7E6002F
:103D7000B346D700B336D0003307F040B366D70060
:103D8000130545009385C5FF1306C6FFE38A06FCAD
:103D9000635A9D006F00C019933615009386F6FF95
:103DA00063489D1863C6961863840A06130B0000C7
:103DB000139D2A00130A84AA330AAA01930484AA31
:103DC00003A50400938944001306A0009305000096
:103DD0009306000097600000E780001F330665012E
:103DE000333BA600338B6501130DCDFF23A0C40028
:103DF00093840900E3160DFC63080B088324C4A90F
:103E000013058002638AAA3C23206A01938A1A0060
:103E1000232454B563800D08130B0000139D2D005F
:103E2000130AC4B4330AAA019304C4B403A504005A
:103E3000938944001306A000930500009306000038
:103E400097600000E780401833066501333BA60009
:103E5000338B6501130DCDFF23A0C40093840900AB
:103E6000E3160DFC63000B0A8324C4A9130580022A
:103E70006384AD3623206A01938D1D002326B4BFD1
:103E8000639E0C006F0040098324C4A9232454B509
:103E9000E3940DF82326B4BF63800C08130B0000D5
:103EA000139D2C00130A04BF330AAA01930404BF14
:103EB00003A50400938944001306A00093050000A5
:103EC0009306000097600000E7800010330665014C
:103ED000333BA600338B6501130DCDFF23A0C40037
:103EE00093840900E3160DFC63060B028324C4A926
:103EF000130580026382AC2E23206A01938C1C0080
:103F00006F0080018324C4A92326B4BFE3980CF872
:103F10006F0080008324C4A9232894C913850A0054
:103F2000832504A9E3E0559B032504A96FF09F991D
:103F300063D89608832AC4A8032904AA63569D0A55
:103F4000130584AA9305100097500000E7804020D5
:103F5000032584B4832544D363E4A50013850500B9
:103F6000930590026376B518931525003305B0408C
:103F70001386C5FF930544C9B385C500930684AA7B
:103F80003386C600630A05048326060003A70500DE
:103F9000B3B7E600B346D700B336D0003307F040DE
:103FA000B366D700130545009385C5FF1306C6FF0A
:103FB000E38A06FC1305200063E8A6026F00800870
:103FC000832544A8832AC4A8032584A8032904AA16
:103FD00063702C096F004010933615009386F6FF2E
:103FE0001305200063F0A60613050000B3842A0120
:103FF0009305F0FF13069003B306AB00638EB6087B
:10400000B306AA0083C606001305F5FFE386C6FEC5
:10401000B305AB0033865501834616009386160020
:1040200093852500A300D600636EBB001346F5FF01
:104030003305AA00130525009305000397700000BF
:10404000E780C0E9832544A8032584A863662C097A
:1040500023A0550123A225012394A5008320C15745
:104060000324815783244157032901578329C156CB
:10407000032A8156832A4156032B0156832BC155AF
:10408000032C8155832C4155032D0155832DC1549B
:104090001301015867800000130510032380AA0054
:1040A000630C0B0013851A009305000313060B0025
:1040B00097700000E78080E2832544A86372891925
:1040C000130500032380A40013092B00032584A8F3
:1040D00013051500E37E2CF737D60080130686946F
:1040E0001305090093050C0097500000E78040DCA1
:1040F00037D600801306464E930580029750000085
:10410000E78000DB37D600801306464E9305800219
:104110001385060097500000E78080D937D50080CE
:104120001305454F37D600801306464E9305A00170
:1041300097300000E78080EA37D600801306464EAD
:104140009305800213850A0097500000E78040D64F
:1041500037D500801305F58537D600801306C6874E
:104160009305C00197300000E78040E737D5008015
:104170001305C58837D600801306C68A9305D0017B
:1041800097300000E78080E537D500801305C58BA8
:1041900037D600801306868D9305C0019730000046
:1041A000E780C0E337D500801305858E37D60080C1
:1041B000130686919305D00297300000E78000E255
:1041C00037D600801306464E9305800213050A0079
:1041D00097500000E780C0CD37D600801306464ECA
:1041E000130580029305800297300000E78080E38A
:1041F00037D600801306869213850C0093850C0039
:1042000097300000E78000E237D500801305059A5B
:1042100037D600801306869D930560039730000013
:10422000E780C0DB37D500801305859537D6008041
:10423000130606999305700397300000E78000DAB3
:1042400037D60080130686931305090093050C00EA
:1042500097300000E78000DD130101C723261138E5
:10426000232481382322913823202139232E3137EA
:10427000232C4137232A51372328613723267137CE
:1042800023248137232291372320A137232EB135D0
:104290001304013983AB450003AB0500B3677B0111
:1042A000E38E0750938906009304060003A8C50017
:1042B00003A68500B3660601E3800652130A0700D1
:1042C00003A7450183A60501B3E7E600E38407528F
:1042D000B306DB00B3B666013387EB003307D700C4
:1042E00063047701B3367701E39C065C63860B01B8
:1042F00033B60B016F0080003336CB00E310065E4F
:10430000839A850193351B00B386BB40B75555553D
:1043100013865555B73533339385353337170F0F1C
:104320009307F7F02324A4C8639C06069306FBFFBB
:1043300013D71600B3E6E60013D72600B3E6E6006F
:1043400013D74600B3E6E60013D78600B3E6E600CF
:1043500013D70601B3E6E60093C6F6FF13D716009F
:104360003376C700B386C64033F6B60093D6260030
:10437000B3F5B600B305B60013D64500B385C50046
:1043800033F5F500931585003305B5009315050148
:104390003305B50013558501930505026F00C0066E
:1043A00013D71600B3E6E60013D72600B3E6E600FF
:1043B00013D74600B3E6E60013D78600B3E6E6005F
:1043C00013D70601B3E6E60093C6F6FF13D716002F
:1043D0003376C700B386C64033F6B60093D62600C0
:1043E000B3F5B600B305B60013D64500B385C500D6
:1043F00033F5F500931585003305B50093150501D8
:104400003305B5009355850113D6FA413385BA407B
:10441000B3B5BA00B305B6403756104D130626D4CF
:104420009306000097600000E78000BA37561344F7
:10443000130606083306C5003335A6003385A500EC
:104440001309350113150901935C054113B51B00D0
:104450009305F5FFB3F57501130620003306A6405A
:10446000232CC4D2232C64C9232EB4C8130504CA38
:10447000130680099305000097700000E78000A6EE
:10448000130504D41306C0099305000097700000BB
:10449000E780C0A413051000232EA4DC232EA4D291
:1044A00063C80A02130584C993850A009750000067
:1044B000E78000CA232694C8232844C963CC0C0291
:1044C0009315190193D515011305C4D36F0080030B
:1044D0003305504113150501935505411305C4D308
:1044E00097500000E780C0C6232694C8232844C9FB
:1044F000E3D80CFC330590411315050193550501D4
:10450000130584C997E0FFFFE78080E7832AC4DDB5
:10451000130584F29305C4D31306000A97600000C4
:10452000E78000B31305A000232454FD938D0900F8
:10453000232A34C963E4A908930944F2130A9002B8
:104540001309900037D59A3B130B05A0832D44C95E
:104550006F00C000938D7DFF6372B907032584FC53
:10456000E3784523E30805FE9305000013152500B5
:10457000B304A040338DA900832B0D0013850B00DD
:1045800013060B009306000097600000E780805D33
:10459000130C050013060B00930600009760000043
:1045A000E78080A2B385AB4023208D019384440033
:1045B000130DCDFFE39204FC6FF0DFF9939D2D0006
:1045C00037D50080130585113305B501032B050090
:1045D000131B1B00E30E0B22032584FC93059002A2
:1045E000E378B51A6308052093050000131525002C
:1045F0003309A040130684F23305C5009304C5FFB8
:10460000832DC4C8832944C9032A04C983AB040089
:1046100013850B0013060B00930600009760000043
:10462000E7804054130C050013060B0093060000AE
:1046300097600000E7804099B385AB4023A08401D8
:10464000130949009384C4FFE31209FC032584FC89
:10465000832B84D363E4AB0013850B0093058002A6
:10466000E3E8A5126306050613060000930584C956
:10467000930684F21307050083A7060003A805002C
:1046800033880701B337F80013761600B308C80063
:1046900033B6080133E6C70023A016019385450011
:1046A0001307F7FF93864600E31807FC6302060230
:1046B00093058002E302B52493152500130684F2C6
:1046C000B305B6001306100023A0C500130515009E
:1046D0002324A4FC63E4AA0013850A009305900236
:1046E000E378B50A931525003305B0401386C5FF5E
:1046F0009305C4D3B385C500930684F23386C60000
:10470000630A05048326060003A70500B3B7E60085
:10471000B346D700B336D0003307F040B366D700B6
:10472000130545009385C5FF1306C6FFE38A06FC03
:104730001305200063F8A602938C1C0013950C014E
:10474000135C054193051000635C4C09130B0000DA
:104750006F008061933615009386F6FF13052000E5
:10476000E3ECA6FC63840B061309000093942B0072
:10477000930984C9338A990003A50900138B490062
:104780001306A00093050000930600009760000048
:10479000E7808083330625013339A600338925015C
:1047A0009384C4FF23A0C90093090B00E39604FC83
:1047B000630A090013058002E380AB1423202A0159
:1047C000938B1B00832944C9032A04C9232C74D367
:1047D00013950C01135C054193051000E3484CF759
:1047E00033054C4163643503138B09006398090258
:1047F0006F008057832DC4C8832944C9032A04C984
:10480000832B84D3E3FAABE46FF05FE533854C414F
:1048100013150501135B054163080B54232E84C750
:10482000130504DE9305C4D31306000A9760000045
:10483000E7800082232054E9130504DE930510006D
:10484000130C100097500000E78080908324C4DD93
:10485000130544E89305C4D31306000A97500000DB
:10486000E780007F232294F2130544E8930520009B
:1048700097500000E780C08D8324C4DD130584F2C7
:104880009305C4D31306000A97500000E780407CCC
:10489000232494FC130584F2930530009750000004
:1048A000E780008B130F0000832384FC032E44F267
:1048B000832E04E8832AC4DD832B84D3930F44F230
:1048C000930444C9130904E8130DC4DD930084D391
:1048D0001307900263F8EB6C93050F00130F1F0092
:1048E00013952B00130684C96306055C8326060016
:1048F000130646001305C5FFE38806FE13850B006B
:1049000063E47301138503006374E56813172500DE
:104910003306E040B386EF003387E400630E0608F9
:104920008327070003A80600B3B80701B347F800C0
:10493000B337F00033081041B367F80013064600A0
:104940009386C6FF1307C7FFE38A07FC1306200000
:1049500063FCC70693061000130684F2130784C98C
:104960009307050003280600832807001348F8FF73
:1049700033880801B338180193F61600B302D80043
:10498000B3B60201B3E6D800232057001306460051
:104990009387F7FF13074700E39607FC6380066CD5
:1049A000232CA4D213068000930B050093069002DB
:1049B0006374AE026F008002933716009387F7FF8F
:1049C00013062000E3E8C7F81306000093069002E0
:1049D00013850B0063647E0113050E00637AD55ABC
:1049E00093172500B306F0403307F900B387F400AE
:1049F000638E060803A8070083280700B332180156
:104A000033C8080133380001B308504033E80801C7
:104A1000938646001307C7FF9387C7FFE30A08FC86
:104A2000636C0C076308050413071000930644E841
:104A3000930784C91308050083A8060083A2070012
:104A400093C8F8FFB3881201B3B258001377170068
:104A50003383E8003337130133E7E20023A0670014
:104A6000938646001308F8FF93874700E31608FC77
:104A70006306075E232CA4D2136646009306050046
:104A80001307900263F2AE026F00400213B81600E3
:104A90001308F8FFE3780CF913850B009306050063
:104AA0001307900263E47E0193860E0063F2E65ED4
:104AB0001398260033070041B3070D013388040122
:104AC000630E07088328080083A2070033B3580049
:104AD000B3C81201B3381001B3026040B3E8120149
:104AE000130747009387C7FF1308C8FFE38A08FC32
:104AF000636C1C076388060413071000130504DEAB
:104B0000930784C9138806008328050083A2070041
:104B100093C8F8FFB3881201B3B258001377170097
:104B20003383E8003337130133E7E20023A0670043
:104B3000130545001308F8FF93874700E31608FCA8
:104B4000630E0750232CD4D213062600938B060045
:104B50001305900263F2DA026F00400293381700E7
:104B60009388F8FFE3781CF993060500938B060001
:104B70001305900263E4DA00938B0A0063F4AB42FE
:104B800093972B003305F0403387F000B387F40090
:104B90006308050803A8070083280700B33218013B
:104BA00033C8080133380001B308504033E8080126
:104BB000130545001307C7FF9387C7FFE30A08FCE7
:104BC00063660C0763880B04930610001305C4D3B7
:104BD000130784C993870B00032805008328070067
:104BE0001348F8FF33880801B338180193F616000C
:104BF000B302D800B3B60201B3E6D80023205700B1
:104C0000130545009387F7FF13074700E39607FC5A
:104C100063860644232C74D3130616006F004001EC
:104C2000133815001308F8FFE37E0CF9938B060088
:104C300013079002638E354D13050603B385BD003F
:104C40002380A50063F0EB3663820B0C13850C0008
:104C5000938C00002320E4C92322A4C813890E00EA
:104C6000130D0E00138C0300130A000093942B0005
:104C7000130584C933059500232CA4C6930984C960
:104C800003A50900938D49001306A00093050000B9
:104C90009306000097500000E7800033330645017B
:104CA000333AA600338A45019384C4FF23A0C90088
:104CB00093890D00E39604FC63000A061307900233
:104CC00013058002638AAB4293030C0093800C00AF
:104CD000032584C723204501938B1B00832DC4C863
:104CE000832944C9032A04C9130C1000130E0D00B4
:104CF000930E0900832C44C8032F04C8930F44F279
:104D0000930444C9130904E8130DC4DD232C74D3A0
:104D1000E3126FBD6F00C004832DC4C8832944C94A
:104D2000032A04C993030C00130C1000130E0D008A
:104D3000930E0900032544C8032F04C8930F44F2BF
:104D4000930444C9130904E8130DC4DD93800C00D7
:104D5000930C050013079002232C74D3E31C6FB748
:104D600093050000032CC4C71305900263F0AA2C1E
:104D7000638E0A049306000013962A001307C4D317
:104D80003305C7008327070013982700B308F800EE
:104D9000B386D8002320D7001307470033B8080193
:104DA00093D7E701B3870701B3B616011306C6FF11
:104DB000B386D700E31806FC638A06001306800258
:104DC000638CCA322320D500938A1A00232E54DD27
:104DD00063E47A01938B0A001305900263F4AB1C21
:104DE000939B2B00330570419386CBFF1306C4D3EE
:104DF0003306D600130784C9B306D7006300050A3B
:104E000003A70600832706003338F70033C7E700FF
:104E10003337E000B307004133E7E70013054500EF
:104E20001306C6FF9386C6FFE30A07FC630E070658
:104E30001375F70F13061000631CC50E63E6692790
:104E40001305000033896D011306F0FF130790036B
:104E500093860D006300AB08B387660183C7F7FF35
:104E600013051500130616009386F6FFE384E7FE8C
:104E7000338566018345050093851500B306CB4055
:104E80002300B50063F6660B1305150093050003B8
:104E900097600000E78080046F00800913371500D9
:104EA0001307F7FFE31607F863880506130B0000E6
:104EB0006F00400863E2691D630EBB063385BD00C9
:104EC0003306BB409305000397600000E7800001B4
:104ED0006F0040069304100363940502130510034A
:104EE0001306FBFF2380AD00630C060813851D002D
:104EF000930500039304000397600000E78000FE21
:104F0000938C1C0063464C0363743B03230099009D
:104F1000130B1B006F00C0011305FBFF63763521E7
:104F20003385AD000345050013751500E31805F042
:104F300063EA6911032584C82320B5012322650192
:104F4000231495018320C1380324813883244138F8
:104F5000032901388329C137032A8137832A41373E
:104F6000032B0137832BC136032C8136832C41362A
:104F7000032D0136832DC1351301013967800000EF
:104F800093040003938C1C00E3504CF96FF05FFA1C
:104F900037D600801306464E9305800297400000E6
:104FA000E78000F137D600801306464E9305800255
:104FB00013850B0097400000E78080EF37D5008015
:104FC0001305F58537D600801306869E9305C0012C
:104FD00097200000E780800037D500801305C58842
:104FE00037D600801306869F9305D00197200000D6
:104FF000E780C0FE37D500801305C58B37D600800B
:10500000130686A09305C00197200000E78000FDED
:1050100037D500801305B55237D600801306464EAB
:105020009305B00197200000E78040FB37D6008051
:105030001306464E9305800213850A009740000030
:10504000E78000E737D60080130686A313050B0020
:105050009385090097400000E78080E537D5008000
:105060001305454F37D600801306464E9305A00121
:1050700097200000E78080F637D60080130686A5CB
:1050800013050B009385090097400000E78040E27C
:1050900037D600801306464E93058002138506001E
:1050A00097400000E780C0E037D60080130686A254
:1050B00013050B009385090097400000E78040DF4F
:1050C00037D500801305059A37D60080130686A7CA
:1050D0009305600397200000E78040F037D50080FB
:1050E0001305859537D60080130686A693057003B1
:1050F00097200000E78080EE37D600801306464EEA
:10510000130580029305800297200000E78080F15C
:1051100037D60080130686A41385090093850900FD
:1051200097200000E78000F037D60080130686A1A4
:105130009385090097200000E780C0EE130101F479
:10514000232E110A232C810A232A910A2328210BBA
:105150002326310B2324410B2322510B2320610BE7
:10516000232E7109232C8109232A91092328A109BF
:105170002326B1091304010C03A7450083A70500EA
:1051800033E8E7002328D4F8E3080866930E050007
:1051900083A6C50003AE85003365DE00E30C05661B
:1051A00083A8450103A5050133681501E3020868DA
:1051B0003388A700B332F800B308170133835800CF
:1051C0006304E300B332E300E39402706306D700A4
:1051D000B332D7006F008000B3B2C701E39802700A
:1051E00093020001032304F9E3F262663335A80059
:1051F000B388A80013D5D801E318056603D5850147
:1052000093B31800B305704093F505FEB305B500E0
:1052100093935300138303FEB3127800232AC4F63A
:1052200063460300138802006F0080003398780003
:105230009358F341B3F858009352080193B2120007
:1052400033035040137303FFB3856500939242000C
:105250003318580013C3F20193D3180033D36300FB
:1052600033636800B3985800135888011338180046
:10527000B302004193F282FFB38555001318380042
:10528000B31203011343F80193D3180033D363001F
:1052900033E362003398080193D8C20193B8180031
:1052A000B302104193F2C2FFB385550093982800D2
:1052B000B312130113C3F8019353180033D36300DF
:1052C00033E36200B314180113D8E201933A1800D3
:1052D000330850411378E8FFB3850501939A1A000B
:1052E0003318530193C8FA0193D21400B3D81201B2
:1052F00033691801132B0900134A1B00B389454178
:10530000B3B5C701B306D740B388B640B382C7412F
:10531000232C54F8232E14F9B30535419395050138
:105320002310A4FAE3C0055613D305419375F30384
:10533000938605FE13C6F5FF63C60602339CB200D2
:10534000B393620013D8F641337F780063DC060222
:1053500093131C00B393C300335E6F00B3637E00EE
:105360006F0080023398680093D31200B3D3C30058
:10537000336C7800B393620013D8F641337F780022
:10538000E3C806FCB353BC0033536C0033736800AE
:10539000232664FAB3C25300B3481301B3E81201E1
:1053A000232474FAE39E0842232EE4F8232CF4F815
:1053B0002310A4FA3395B70063C40602130D050049
:1053C000B37BA8003355B50063DA060293161D00BF
:1053D0003396C600B3D5BB00B3E5C5006F004002ED
:1053E00093D81700B3D8C800B312B70033ED120139
:1053F000B37BA8003355BD00E3CA06FC9305050046
:105400003375A8002326A4FAB3C7F5003345E50099
:1054100033E5A7002324B4FAE314053C232AE4F976
:10542000232674F9232ED4F5130500FA33053541EC
:1054300013150501135505411305F54393050005A3
:1054400097500000E780C0B3B71500009385E5844E
:1054500097600000E78000B693051005E376B54A33
:10546000B3955401130BEB0113D6150033566601A7
:1054700013154500B7D60080938686A83385A6000D
:10548000832A050083244500831C85000355A5005D
:105490002324A4F8331549013369C500339B450122
:1054A000138504009305000013060900930600000D
:1054B00097500000E78040B1930D05002322B4F817
:1054C000138504009305000013060B0093060000EB
:1054D00097500000E78040AF130A05002320B4F87E
:1054E00013850A00930500001306090093060000C7
:1054F00097500000E78040AD13090500232EB4F655
:1055000013850A009305000013060B0093060000A4
:1055100097500000E78040ABB305B90033B52501D3
:10552000338A4501B335BA003305B500B7050080AD
:10553000B305BA00B70B0080B3B545013305B5001C
:105540002322A4F633053041B309954113850400A5
:105550009305000013060C0093060000975000000E
:10556000E78080A6232CA4F62328B4F61385040034
:1055700093050000032B44F913060B00930600006B
:1055800097500000E78040A4130905002326B4F6D5
:1055900013850A009305000013060C009306000013
:1055A00097500000E78040A2130A05002324B4F6B8
:1055B00013850A009305000013060B0093060000F4
:1055C00097500000E78040A0B305BA0033B545010D
:1055D00033892501B335B9003305B5002320A4F67E
:1055E00033057901333C2501138504009305000040
:1055F00013060D009306000097500000E780C09C42
:1056000013090500138A05001385040093050000A3
:10561000832BC4F813860B009306000097500000FC
:10562000E780809A93040500138B050013850A0018
:105630009305000013060D0093060000975000002C
:10564000E7808098930C0500138D050013850A00F0
:105650009305000013860B0093060000975000008E
:10566000E7808096B385BC0033B59501B38495007F
:10567000B3B5B4003305B500B70B0080B38B74012C
:10568000B3B59B00B305B50033092D013336A9012D
:105690003306CA00330B690133352B01B302BB005B
:1056A0008325C4F7B385BD00B3B6B501032744F81D
:1056B000B306D700032704F83387E500B335B700F6
:1056C000B385B600832644F6B306D70033B7E600A9
:1056D000B385E5001383160093361300B383D5001A
:1056E00093F7F903938507FE13CEF7FF232AB4F847
:1056F00063C60500B3DBF3006F0040019395130010
:10570000B395C501B3563301B3EBB6003306A6001B
:10571000B3B66201832504F6B3858501032544F9F8
:1057200013250500130710002326F4F8B317F7001C
:105730001308F5FF3378F8003305A040331737011D
:10574000B378E50013B518003305A8402322A4F868
:1057500013D54B00130710279387F8FF2320F4F885
:10576000232804F5232A14F5232C54F4232EC4F7FC
:105770006372E5021305400663F4AB041305A00051
:1057800013B7AB0063F4AB00130510001347170009
:105790006F00C00837450F001305052463FEAB02F8
:1057A000378501001305056A33B7AB0063F6AB001C
:1057B0003725000013050571134757006F000006D9
:1057C0009307803E13B78B3E63E4FB001305803ED6
:1057D000134737006F00800437E5F5051305051002
:1057E00063F2AB02379598001305056833B7AB0039
:1057F00063F6AB0037450F00130505241347770008
:105800006F00C00137D79A3B930707A033B7FB005F
:1058100063E4FB0013850700134797003306D600A7
:105820002322C4F6832744F8B3FCF300032804F8CA
:10583000337D0301032684F8130A07003306C740AB
:10584000130616002322C4F4832684F7032684F665
:105850003386C600B336D600032704F7B306D70055
:105860000327C4F63307E6003336C7003386C60085
:10587000B305B700B3B6E5003306D600B336B300C0
:105880003306D600232474F63386C340232664F6F9
:10589000B305B3402324B4F49385150013BC15005D
:1058A0002326C4F433068601930A06003376F600F5
:1058B0002320C4F6232CB4F6B3F505012328B4F64F
:1058C0009309F0FF832544F993D5F5412324B4F8D7
:1058D000832D44F7130CF0FF93040500032B04F908
:1058E000330B8B0113850B00938504009750000048
:1058F000E780002513090500938504009740000008
:10590000E7800068630E3B79B38BAB401306090355
:105910002380CD000327C4F83395EB00832544F999
:1059200063C60500930505006F00000193D51B00B9
:105930008326C4F7B3D5D50013890A00832684F8DB
:1059400033F5A600B38595013303A501B333A30056
:10595000B383750063887A0033B52301630A0500B9
:105960006F008004032584F73335A300631E05020E
:1059700033058A01630435059305A00013850400EF
:1059800097500000E780C01B130CFCFF938D1D0097
:105990009305A000E3F2B4F437D5008013050505A4
:1059A00097400000E78040C93397E400032544F99D
:1059B00063460516930507006F000017930D00005E
:1059C000330B804193041000832A44F7032704F724
:1059D000032A04F66F00000133B54C01130B1B00C2
:1059E0006318050C032504F96378AB6C9309070071
:1059F000938B0D00138C04001306A00013050D00FB
:105A000093850C009306000097400000E780C05B80
:105A1000930C0500138905001306A00013850400EC
:105A200093850D009306000097400000E780C05961
:105A300093040500938D05001306A000138509004B
:105A400093050A009306000097400000E780C057C6
:105A500013070500138A0500032544F96348050070
:105A60000325C4F83355A9006F00C0010325C4F80D
:105A700033D5AC00931519000326C4F7B395C500C0
:105A80003365B500832504F833FDBC00832544F855
:105A9000B37CB9009309050333856A0123003501FE
:105AA000E31C9AF33335ED00130B1B00E30C05F2F6
:105AB000832584F50326C4F63335B600832684F6A1
:105AC000832744F6B386F640B386A6403306B64035
:105AD0001385040093850D002328E4F69740000009
